{
  "_format": "hh-sol-artifact-1",
  "contractName": "CommunityBountyBoard",
  "sourceName": "contracts/CommuntyBoard.sol",
  "abi": [
    {
      "inputs": [],
      "stateMutability": "nonpayable",
      "type": "constructor"
    },
    {
      "anonymous": false,
      "inputs": [
        {
          "indexed": true,
          "internalType": "uint256",
          "name": "bountyId",
          "type": "uint256"
        },
        {
          "indexed": true,
          "internalType": "address",
          "name": "creator",
          "type": "address"
        }
      ],
      "name": "BountyCanceled",
      "type": "event"
    },
    {
      "anonymous": false,
      "inputs": [
        {
          "indexed": true,
          "internalType": "uint256",
          "name": "bountyId",
          "type": "uint256"
        },
        {
          "indexed": false,
          "internalType": "uint256",
          "name": "winnerCount",
          "type": "uint256"
        }
      ],
      "name": "BountyCompleted",
      "type": "event"
    },
    {
      "anonymous": false,
      "inputs": [
        {
          "indexed": true,
          "internalType": "uint256",
          "name": "bountyId",
          "type": "uint256"
        },
        {
          "indexed": true,
          "internalType": "address",
          "name": "creator",
          "type": "address"
        },
        {
          "indexed": false,
          "internalType": "string",
          "name": "title",
          "type": "string"
        },
        {
          "indexed": false,
          "internalType": "uint256",
          "name": "reward",
          "type": "uint256"
        }
      ],
      "name": "BountyCreated",
      "type": "event"
    },
    {
      "anonymous": false,
      "inputs": [
        {
          "indexed": true,
          "internalType": "uint256",
          "name": "bountyId",
          "type": "uint256"
        },
        {
          "indexed": true,
          "internalType": "uint256",
          "name": "submissionId",
          "type": "uint256"
        },
        {
          "indexed": true,
          "internalType": "address",
          "name": "voter",
          "type": "address"
        },
        {
          "indexed": false,
          "internalType": "bool",
          "name": "approve",
          "type": "bool"
        }
      ],
      "name": "BountyVoted",
      "type": "event"
    },
    {
      "anonymous": false,
      "inputs": [
        {
          "indexed": true,
          "internalType": "address",
          "name": "previousOwner",
          "type": "address"
        },
        {
          "indexed": true,
          "internalType": "address",
          "name": "newOwner",
          "type": "address"
        }
      ],
      "name": "OwnershipTransferred",
      "type": "event"
    },
    {
      "anonymous": false,
      "inputs": [
        {
          "indexed": true,
          "internalType": "uint256",
          "name": "bountyId",
          "type": "uint256"
        },
        {
          "indexed": true,
          "internalType": "uint256",
          "name": "submissionId",
          "type": "uint256"
        },
        {
          "indexed": true,
          "internalType": "address",
          "name": "winner",
          "type": "address"
        },
        {
          "indexed": false,
          "internalType": "uint256",
          "name": "amount",
          "type": "uint256"
        },
        {
          "indexed": false,
          "internalType": "string",
          "name": "txHash",
          "type": "string"
        }
      ],
      "name": "PayoutSent",
      "type": "event"
    },
    {
      "anonymous": false,
      "inputs": [
        {
          "indexed": true,
          "internalType": "uint256",
          "name": "bountyId",
          "type": "uint256"
        },
        {
          "indexed": true,
          "internalType": "address",
          "name": "submitter",
          "type": "address"
        },
        {
          "indexed": false,
          "internalType": "string",
          "name": "ipfsProofHash",
          "type": "string"
        },
        {
          "indexed": false,
          "internalType": "string",
          "name": "txHash",
          "type": "string"
        }
      ],
      "name": "ProofSubmitted",
      "type": "event"
    },
    {
      "anonymous": false,
      "inputs": [
        {
          "indexed": true,
          "internalType": "address",
          "name": "user",
          "type": "address"
        },
        {
          "indexed": false,
          "internalType": "uint256",
          "name": "newReputation",
          "type": "uint256"
        }
      ],
      "name": "ReputationUpdated",
      "type": "event"
    },
    {
      "anonymous": false,
      "inputs": [
        {
          "indexed": true,
          "internalType": "uint256",
          "name": "bountyId",
          "type": "uint256"
        },
        {
          "indexed": true,
          "internalType": "uint256",
          "name": "submissionId",
          "type": "uint256"
        },
        {
          "indexed": true,
          "internalType": "address",
          "name": "submitter",
          "type": "address"
        }
      ],
      "name": "SubmissionRejected",
      "type": "event"
    },
    {
      "stateMutability": "payable",
      "type": "fallback"
    },
    {
      "inputs": [],
      "name": "BLOCKS_PER_DAY",
      "outputs": [
        {
          "internalType": "uint256",
          "name": "",
          "type": "uint256"
        }
      ],
      "stateMutability": "view",
      "type": "function"
    },
    {
      "inputs": [],
      "name": "TOTAL_VOTES",
      "outputs": [
        {
          "internalType": "uint256",
          "name": "",
          "type": "uint256"
        }
      ],
      "stateMutability": "view",
      "type": "function"
    },
    {
      "inputs": [
        {
          "internalType": "uint256",
          "name": "",
          "type": "uint256"
        }
      ],
      "name": "bounties",
      "outputs": [
        {
          "internalType": "uint256",
          "name": "id",
          "type": "uint256"
        },
        {
          "internalType": "address",
          "name": "creator",
          "type": "address"
        },
        {
          "internalType": "string",
          "name": "title",
          "type": "string"
        },
        {
          "internalType": "string",
          "name": "description",
          "type": "string"
        },
        {
          "internalType": "string",
          "name": "proofRequirements",
          "type": "string"
        },
        {
          "internalType": "uint256",
          "name": "reward",
          "type": "uint256"
        },
        {
          "internalType": "address",
          "name": "rewardToken",
          "type": "address"
        },
        {
          "internalType": "uint256",
          "name": "deadline",
          "type": "uint256"
        },
        {
          "internalType": "bool",
          "name": "completed",
          "type": "bool"
        },
        {
          "internalType": "uint256",
          "name": "winnerCount",
          "type": "uint256"
        },
        {
          "internalType": "uint256",
          "name": "submissionCount",
          "type": "uint256"
        }
      ],
      "stateMutability": "view",
      "type": "function"
    },
    {
      "inputs": [],
      "name": "bountyCount",
      "outputs": [
        {
          "internalType": "uint256",
          "name": "",
          "type": "uint256"
        }
      ],
      "stateMutability": "view",
      "type": "function"
    },
    {
      "inputs": [
        {
          "internalType": "uint256",
          "name": "_bountyId",
          "type": "uint256"
        }
      ],
      "name": "completeBounty",
      "outputs": [],
      "stateMutability": "nonpayable",
      "type": "function"
    },
    {
      "inputs": [
        {
          "internalType": "string",
          "name": "_title",
          "type": "string"
        },
        {
          "internalType": "string",
          "name": "_description",
          "type": "string"
        },
        {
          "internalType": "string",
          "name": "_proofRequirements",
          "type": "string"
        },
        {
          "internalType": "uint256",
          "name": "_reward",
          "type": "uint256"
        },
        {
          "internalType": "address",
          "name": "_rewardToken",
          "type": "address"
        },
        {
          "internalType": "uint256",
          "name": "_deadline",
          "type": "uint256"
        }
      ],
      "name": "createBounty",
      "outputs": [
        {
          "internalType": "uint256",
          "name": "",
          "type": "uint256"
        }
      ],
      "stateMutability": "payable",
      "type": "function"
    },
    {
      "inputs": [
        {
          "internalType": "uint256",
          "name": "_bountyId",
          "type": "uint256"
        },
        {
          "internalType": "uint256",
          "name": "_submissionId",
          "type": "uint256"
        }
      ],
      "name": "getPayoutTxHash",
      "outputs": [
        {
          "internalType": "string",
          "name": "",
          "type": "string"
        }
      ],
      "stateMutability": "view",
      "type": "function"
    },
    {
      "inputs": [
        {
          "internalType": "uint256",
          "name": "_bountyId",
          "type": "uint256"
        },
        {
          "internalType": "uint256",
          "name": "_submissionId",
          "type": "uint256"
        }
      ],
      "name": "getSubmission",
      "outputs": [
        {
          "internalType": "address",
          "name": "submitter",
          "type": "address"
        },
        {
          "internalType": "string",
          "name": "ipfsProofHash",
          "type": "string"
        },
        {
          "internalType": "uint256",
          "name": "timestamp",
          "type": "uint256"
        },
        {
          "internalType": "bool",
          "name": "approved",
          "type": "bool"
        },
        {
          "internalType": "uint256",
          "name": "approvalCount",
          "type": "uint256"
        },
        {
          "internalType": "uint256",
          "name": "rejectCount",
          "type": "uint256"
        },
        {
          "internalType": "bool",
          "name": "isWinner",
          "type": "bool"
        },
        {
          "internalType": "uint256",
          "name": "rewardShare",
          "type": "uint256"
        },
        {
          "internalType": "string",
          "name": "txHash",
          "type": "string"
        },
        {
          "internalType": "string",
          "name": "payoutTxHash",
          "type": "string"
        }
      ],
      "stateMutability": "view",
      "type": "function"
    },
    {
      "inputs": [
        {
          "internalType": "uint256",
          "name": "_bountyId",
          "type": "uint256"
        }
      ],
      "name": "getSubmissionCount",
      "outputs": [
        {
          "internalType": "uint256",
          "name": "",
          "type": "uint256"
        }
      ],
      "stateMutability": "view",
      "type": "function"
    },
    {
      "inputs": [
        {
          "internalType": "uint256",
          "name": "_bountyId",
          "type": "uint256"
        },
        {
          "internalType": "uint256",
          "name": "_submissionId",
          "type": "uint256"
        }
      ],
      "name": "getSubmissionTxHash",
      "outputs": [
        {
          "internalType": "string",
          "name": "",
          "type": "string"
        }
      ],
      "stateMutability": "view",
      "type": "function"
    },
    {
      "inputs": [
        {
          "internalType": "address",
          "name": "_user",
          "type": "address"
        }
      ],
      "name": "getUserBounties",
      "outputs": [
        {
          "internalType": "uint256[]",
          "name": "",
          "type": "uint256[]"
        }
      ],
      "stateMutability": "view",
      "type": "function"
    },
    {
      "inputs": [
        {
          "internalType": "address",
          "name": "_user",
          "type": "address"
        }
      ],
      "name": "getUserSubmissions",
      "outputs": [
        {
          "internalType": "uint256[]",
          "name": "",
          "type": "uint256[]"
        }
      ],
      "stateMutability": "view",
      "type": "function"
    },
    {
      "inputs": [
        {
          "internalType": "uint256",
          "name": "",
          "type": "uint256"
        },
        {
          "internalType": "address",
          "name": "",
          "type": "address"
        }
      ],
      "name": "hasSubmitted",
      "outputs": [
        {
          "internalType": "bool",
          "name": "",
          "type": "bool"
        }
      ],
      "stateMutability": "view",
      "type": "function"
    },
    {
      "inputs": [
        {
          "internalType": "uint256",
          "name": "_bountyId",
          "type": "uint256"
        },
        {
          "internalType": "uint256",
          "name": "_submissionId",
          "type": "uint256"
        },
        {
          "internalType": "address",
          "name": "_user",
          "type": "address"
        }
      ],
      "name": "hasVotedOnSubmission",
      "outputs": [
        {
          "internalType": "bool",
          "name": "",
          "type": "bool"
        }
      ],
      "stateMutability": "view",
      "type": "function"
    },
    {
      "inputs": [],
      "name": "owner",
      "outputs": [
        {
          "internalType": "address",
          "name": "",
          "type": "address"
        }
      ],
      "stateMutability": "view",
      "type": "function"
    },
    {
      "inputs": [
        {
          "internalType": "uint256",
          "name": "",
          "type": "uint256"
        },
        {
          "internalType": "uint256",
          "name": "",
          "type": "uint256"
        }
      ],
      "name": "payoutTxHashes",
      "outputs": [
        {
          "internalType": "string",
          "name": "",
          "type": "string"
        }
      ],
      "stateMutability": "view",
      "type": "function"
    },
    {
      "inputs": [],
      "name": "renounceOwnership",
      "outputs": [],
      "stateMutability": "nonpayable",
      "type": "function"
    },
    {
      "inputs": [
        {
          "internalType": "uint256",
          "name": "",
          "type": "uint256"
        },
        {
          "internalType": "uint256",
          "name": "",
          "type": "uint256"
        }
      ],
      "name": "submissionTxHashes",
      "outputs": [
        {
          "internalType": "string",
          "name": "",
          "type": "string"
        }
      ],
      "stateMutability": "view",
      "type": "function"
    },
    {
      "inputs": [
        {
          "internalType": "uint256",
          "name": "_bountyId",
          "type": "uint256"
        },
        {
          "internalType": "string",
          "name": "_ipfsProofHash",
          "type": "string"
        }
      ],
      "name": "submitProof",
      "outputs": [],
      "stateMutability": "nonpayable",
      "type": "function"
    },
    {
      "inputs": [
        {
          "internalType": "address",
          "name": "newOwner",
          "type": "address"
        }
      ],
      "name": "transferOwnership",
      "outputs": [],
      "stateMutability": "nonpayable",
      "type": "function"
    },
    {
      "inputs": [
        {
          "internalType": "address",
          "name": "",
          "type": "address"
        }
      ],
      "name": "userReputation",
      "outputs": [
        {
          "internalType": "uint256",
          "name": "",
          "type": "uint256"
        }
      ],
      "stateMutability": "view",
      "type": "function"
    },
    {
      "inputs": [
        {
          "internalType": "uint256",
          "name": "_bountyId",
          "type": "uint256"
        },
        {
          "internalType": "uint256",
          "name": "_submissionId",
          "type": "uint256"
        },
        {
          "internalType": "bool",
          "name": "_approve",
          "type": "bool"
        }
      ],
      "name": "voteOnSubmission",
      "outputs": [],
      "stateMutability": "nonpayable",
      "type": "function"
    },
    {
      "stateMutability": "payable",
      "type": "receive"
    }
  ],
  "bytecode": "0x60806040523480156200001157600080fd5b5062000032620000266200003f60201b60201c565b6200004760201b60201c565b600180819055506200010b565b600033905090565b60008060009054906101000a900473ffffffffffffffffffffffffffffffffffffffff169050816000806101000a81548173ffffffffffffffffffffffffffffffffffffffff021916908373ffffffffffffffffffffffffffffffffffffffff1602179055508173ffffffffffffffffffffffffffffffffffffffff168173ffffffffffffffffffffffffffffffffffffffff167f8be0079c531659141344cd1fd0a4f28419497f9722a3daafe3b4186f6b6457e060405160405180910390a35050565b61465e806200011b6000396000f3fe6080604052600436106101395760003560e01c80637be24cb8116100ab578063ab5158831161006f578063ab5158831461046d578063b7ed707114610498578063dc2f8744146104de578063e503bb0514610525578063f2fde38b14610562578063fc40d6e71461058b57610140565b80637be24cb81461034e5780638da5cb5b1461038b57806391e4d9ea146103b6578063a57d3806146103f3578063a7b8614d1461043057610140565b806360b8ab57116100fd57806360b8ab57146102185780636591a185146102555780636bb987fe14610292578063715018a6146102bd57806377016ea3146102d45780637b7e41dc1461031157610140565b806301767dd314610142578063139005ab146101725780632af005101461019b5780633e362c96146101c45780634bdf9084146101ef57610140565b3661014057005b005b61015c60048036038101906101579190612e9e565b6105c8565b6040516101699190612f8e565b60405180910390f35b34801561017e57600080fd5b5061019960048036038101906101949190612fa9565b6108f1565b005b3480156101a757600080fd5b506101c260048036038101906101bd9190612fd6565b6110cd565b005b3480156101d057600080fd5b506101d9611468565b6040516101e69190612f8e565b60405180910390f35b3480156101fb57600080fd5b506102166004803603810190610211919061306a565b61146e565b005b34801561022457600080fd5b5061023f600480360381019061023a91906130bd565b611881565b60405161024c9190613185565b60405180910390f35b34801561026157600080fd5b5061027c600480360381019061027791906131a7565b611938565b6040516102899190613292565b60405180910390f35b34801561029e57600080fd5b506102a76119cf565b6040516102b49190612f8e565b60405180910390f35b3480156102c957600080fd5b506102d26119d5565b005b3480156102e057600080fd5b506102fb60048036038101906102f691906130bd565b6119e9565b6040516103089190613185565b60405180910390f35b34801561031d57600080fd5b50610338600480360381019061033391906130bd565b611aa0565b6040516103459190613185565b60405180910390f35b34801561035a57600080fd5b5061037560048036038101906103709190612fa9565b611b4d565b6040516103829190612f8e565b60405180910390f35b34801561039757600080fd5b506103a0611b6d565b6040516103ad91906132c3565b60405180910390f35b3480156103c257600080fd5b506103dd60048036038101906103d891906130bd565b611b96565b6040516103ea9190613185565b60405180910390f35b3480156103ff57600080fd5b5061041a600480360381019061041591906132de565b611c43565b604051610427919061332d565b60405180910390f35b34801561043c57600080fd5b50610457600480360381019061045291906131a7565b611c72565b6040516104649190613292565b60405180910390f35b34801561047957600080fd5b50610482611d09565b60405161048f9190612f8e565b60405180910390f35b3480156104a457600080fd5b506104bf60048036038101906104ba91906130bd565b611d0e565b6040516104d59a99989796959493929190613348565b60405180910390f35b3480156104ea57600080fd5b5061050560048036038101906105009190612fa9565b611f21565b60405161051c9b9a999897969594939291906133f9565b60405180910390f35b34801561053157600080fd5b5061054c600480360381019061054791906131a7565b612160565b6040516105599190612f8e565b60405180910390f35b34801561056e57600080fd5b50610589600480360381019061058491906131a7565b612178565b005b34801561059757600080fd5b506105b260048036038101906105ad91906134b9565b6121fc565b6040516105bf919061332d565b60405180910390f35b600042821161060c576040517f08c379a000000000000000000000000000000000000000000000000000000000815260040161060390613558565b60405180910390fd5b6000841161064f576040517f08c379a0000000000000000000000000000000000000000000000000000000008152600401610646906135c4565b60405180910390fd5b60006002600081548092919061066490613613565b9190505590506000600360008381526020019081526020016000209050818160000181905550338160010160006101000a81548173ffffffffffffffffffffffffffffffffffffffff021916908373ffffffffffffffffffffffffffffffffffffffff160217905550888160020190805190602001906106e5929190612c0d565b50878160030190805190602001906106fe929190612c0d565b5086816004019080519060200190610717929190612c0d565b50858160050181905550848160060160006101000a81548173ffffffffffffffffffffffffffffffffffffffff021916908373ffffffffffffffffffffffffffffffffffffffff160217905550838160070181905550600081600a018190555060008160090181905550600560003373ffffffffffffffffffffffffffffffffffffffff1673ffffffffffffffffffffffffffffffffffffffff168152602001908152602001600020829080600181540180825580915050600190039060005260206000200160009091909190915055600073ffffffffffffffffffffffffffffffffffffffff168573ffffffffffffffffffffffffffffffffffffffff1614156108635785341461085e576040517f08c379a0000000000000000000000000000000000000000000000000000000008152600401610855906136a8565b60405180910390fd5b610891565b6108903330888873ffffffffffffffffffffffffffffffffffffffff1661227c909392919063ffffffff16565b5b3373ffffffffffffffffffffffffffffffffffffffff16827f64b439309954f148e681118e8f6556d39f6204a461e3307190a6928618ff26558b896040516108da9291906136c8565b60405180910390a381925050509695505050505050565b6108f9612305565b60006003600083815260200190815260200160002090508060080160009054906101000a900460ff1615610962576040517f08c379a000000000000000000000000000000000000000000000000000000000815260040161095990613744565b60405180910390fd5b806007015442116109a8576040517f08c379a000000000000000000000000000000000000000000000000000000000815260040161099f906137b0565b60405180910390fd5b6000805b82600a0154811015610a055782600b01600082815260200190815260200160002060060160009054906101000a900460ff16156109f25781806109ee90613613565b9250505b80806109fd90613613565b9150506109ac565b5060008111610a49576040517f08c379a0000000000000000000000000000000000000000000000000000000008152600401610a409061381c565b60405180910390fd5b6000818360050154610a5b919061386b565b90506000828460050154610a6f919061389c565b905060005b84600a0154811015610f1857600085600b01600083815260200190815260200160002090508060060160009054906101000a900460ff1615610f045760008490506000841115610adb578080610ac990613613565b9150508380610ad7906138cd565b9450505b600088848460000160009054906101000a900473ffffffffffffffffffffffffffffffffffffffff168442604051602001610b1a959493929190613960565b6040516020818303038152906040528051906020012090506000610b3d82612355565b604051602001610b4d9190613a47565b604051602081830303815290604052905080600860008c815260200190815260200160002060008781526020019081526020016000209080519060200190610b96929190612c0d565b50600a600460008660000160009054906101000a900473ffffffffffffffffffffffffffffffffffffffff1673ffffffffffffffffffffffffffffffffffffffff1673ffffffffffffffffffffffffffffffffffffffff1681526020019081526020016000206000828254610c0b9190613a69565b925050819055508360000160009054906101000a900473ffffffffffffffffffffffffffffffffffffffff1673ffffffffffffffffffffffffffffffffffffffff167ffc577563f1b9a0461e24abef1e1fcc0d33d3d881f20b5df6dda59de4aae2c821600460008760000160009054906101000a900473ffffffffffffffffffffffffffffffffffffffff1673ffffffffffffffffffffffffffffffffffffffff1673ffffffffffffffffffffffffffffffffffffffff16815260200190815260200160002054604051610cdf9190612f8e565b60405180910390a2600073ffffffffffffffffffffffffffffffffffffffff168960060160009054906101000a900473ffffffffffffffffffffffffffffffffffffffff1673ffffffffffffffffffffffffffffffffffffffff161415610e165760008460000160009054906101000a900473ffffffffffffffffffffffffffffffffffffffff1673ffffffffffffffffffffffffffffffffffffffff1684604051610d8a90613af0565b60006040518083038185875af1925050503d8060008114610dc7576040519150601f19603f3d011682016040523d82523d6000602084013e610dcc565b606091505b5050905080610e10576040517f08c379a0000000000000000000000000000000000000000000000000000000008152600401610e0790613b51565b60405180910390fd5b50610e8a565b610e898460000160009054906101000a900473ffffffffffffffffffffffffffffffffffffffff16848b60060160009054906101000a900473ffffffffffffffffffffffffffffffffffffffff1673ffffffffffffffffffffffffffffffffffffffff166124f99092919063ffffffff16565b5b8360000160009054906101000a900473ffffffffffffffffffffffffffffffffffffffff1673ffffffffffffffffffffffffffffffffffffffff16858b7fc9a6981a3706821e95d9ad05f7921dede8f51b4b7a31dca8c009f6c08615714d8685604051610ef8929190613b71565b60405180910390a45050505b508080610f1090613613565b915050610a74565b506005600460008660010160009054906101000a900473ffffffffffffffffffffffffffffffffffffffff1673ffffffffffffffffffffffffffffffffffffffff1673ffffffffffffffffffffffffffffffffffffffff1681526020019081526020016000206000828254610f8d9190613a69565b925050819055508360010160009054906101000a900473ffffffffffffffffffffffffffffffffffffffff1673ffffffffffffffffffffffffffffffffffffffff167ffc577563f1b9a0461e24abef1e1fcc0d33d3d881f20b5df6dda59de4aae2c821600460008760010160009054906101000a900473ffffffffffffffffffffffffffffffffffffffff1673ffffffffffffffffffffffffffffffffffffffff1673ffffffffffffffffffffffffffffffffffffffff168152602001908152602001600020546040516110619190612f8e565b60405180910390a260018460080160006101000a81548160ff021916908315150217905550847fb14e20043c98ef6452108c9d9477c2033a076dcc80324b977bf42bcb130a49a9846040516110b69190612f8e565b60405180910390a2505050506110ca61257f565b50565b60006003600084815260200190815260200160002090508060080160009054906101000a900460ff1615611136576040517f08c379a000000000000000000000000000000000000000000000000000000000815260040161112d90613744565b60405180910390fd5b806007015442111561117d576040517f08c379a000000000000000000000000000000000000000000000000000000000815260040161117490613bed565b60405180910390fd5b6000825111801561119057506064825111155b6111cf576040517f08c379a00000000000000000000000000000000000000000000000000000000081526004016111c690613c59565b60405180910390fd5b6009600084815260200190815260200160002060003373ffffffffffffffffffffffffffffffffffffffff1673ffffffffffffffffffffffffffffffffffffffff16815260200190815260200160002060009054906101000a900460ff161561126d576040517f08c379a000000000000000000000000000000000000000000000000000000000815260040161126490613cc5565b60405180910390fd5b600081600a01600081548092919061128490613613565b919050559050600082600b0160008381526020019081526020016000209050338160000160006101000a81548173ffffffffffffffffffffffffffffffffffffffff021916908373ffffffffffffffffffffffffffffffffffffffff160217905550838160010190805190602001906112fe929190612c0d565b50428160020181905550600081600401819055506000816005018190555060008160060160006101000a81548160ff0219169083151502179055506000816007018190555060016009600087815260200190815260200160002060003373ffffffffffffffffffffffffffffffffffffffff1673ffffffffffffffffffffffffffffffffffffffff16815260200190815260200160002060006101000a81548160ff021916908315150217905550600660003373ffffffffffffffffffffffffffffffffffffffff1673ffffffffffffffffffffffffffffffffffffffff1681526020019081526020016000208590806001815401808255809150506001900390600052602060002001600090919091909150553373ffffffffffffffffffffffffffffffffffffffff16857fc0b04028e7b044e610e837c16aa829c3ac6eda886999b98be29a1449db097014866040516114599190613d08565b60405180910390a35050505050565b60025481565b600060036000858152602001908152602001600020905080600a015483106114cb576040517f08c379a00000000000000000000000000000000000000000000000000000000081526004016114c290613d89565b60405180910390fd5b600081600b01600085815260200190815260200160002090508160080160009054906101000a900460ff1615611536576040517f08c379a000000000000000000000000000000000000000000000000000000000815260040161152d90613744565b60405180910390fd5b8060080160003373ffffffffffffffffffffffffffffffffffffffff1673ffffffffffffffffffffffffffffffffffffffff16815260200190815260200160002060009054906101000a900460ff16156115c5576040517f08c379a00000000000000000000000000000000000000000000000000000000081526004016115bc90613df5565b60405180910390fd5b8060000160009054906101000a900473ffffffffffffffffffffffffffffffffffffffff1673ffffffffffffffffffffffffffffffffffffffff163373ffffffffffffffffffffffffffffffffffffffff161415611658576040517f08c379a000000000000000000000000000000000000000000000000000000000815260040161164f90613e61565b60405180910390fd5b60038160050154826004015461166e9190613a69565b106116ae576040517f08c379a00000000000000000000000000000000000000000000000000000000081526004016116a590613ecd565b60405180910390fd5b60018160080160003373ffffffffffffffffffffffffffffffffffffffff1673ffffffffffffffffffffffffffffffffffffffff16815260200190815260200160002060006101000a81548160ff021916908315150217905550821561177e5780600401600081548092919061172390613613565b91905055503373ffffffffffffffffffffffffffffffffffffffff1684867f3034d93886b61476962b74389d189a2c2ea99062e19c9c6226ffbaaacdca11446001604051611771919061332d565b60405180910390a4611853565b80600501600081548092919061179390613613565b91905055503373ffffffffffffffffffffffffffffffffffffffff1684867f3034d93886b61476962b74389d189a2c2ea99062e19c9c6226ffbaaacdca114460006040516117e1919061332d565b60405180910390a48060000160009054906101000a900473ffffffffffffffffffffffffffffffffffffffff1673ffffffffffffffffffffffffffffffffffffffff1684867f0c85652d2ac95894ed3aa3311d30cef8a307693957451a95f4b7ace387907c2a60405160405180910390a45b6003816005015482600401546118699190613a69565b141561187a576118798585612588565b5b5050505050565b606060076000848152602001908152602001600020600083815260200190815260200160002080546118b290613f1c565b80601f01602080910402602001604051908101604052809291908181526020018280546118de90613f1c565b801561192b5780601f106119005761010080835404028352916020019161192b565b820191906000526020600020905b81548152906001019060200180831161190e57829003601f168201915b5050505050905092915050565b6060600560008373ffffffffffffffffffffffffffffffffffffffff1673ffffffffffffffffffffffffffffffffffffffff1681526020019081526020016000208054806020026020016040519081016040528092919081815260200182805480156119c357602002820191906000526020600020905b8154815260200190600101908083116119af575b50505050509050919050565b611c2081565b6119dd612645565b6119e760006126c3565b565b60606008600084815260200190815260200160002060008381526020019081526020016000208054611a1a90613f1c565b80601f0160208091040260200160405190810160405280929190818152602001828054611a4690613f1c565b8015611a935780601f10611a6857610100808354040283529160200191611a93565b820191906000526020600020905b815481529060010190602001808311611a7657829003601f168201915b5050505050905092915050565b6008602052816000526040600020602052806000526040600020600091509150508054611acc90613f1c565b80601f0160208091040260200160405190810160405280929190818152602001828054611af890613f1c565b8015611b455780601f10611b1a57610100808354040283529160200191611b45565b820191906000526020600020905b815481529060010190602001808311611b2857829003601f168201915b505050505081565b600060036000838152602001908152602001600020600a01549050919050565b60008060009054906101000a900473ffffffffffffffffffffffffffffffffffffffff16905090565b6007602052816000526040600020602052806000526040600020600091509150508054611bc290613f1c565b80601f0160208091040260200160405190810160405280929190818152602001828054611bee90613f1c565b8015611c3b5780601f10611c1057610100808354040283529160200191611c3b565b820191906000526020600020905b815481529060010190602001808311611c1e57829003601f168201915b505050505081565b60096020528160005260406000206020528060005260406000206000915091509054906101000a900460ff1681565b6060600660008373ffffffffffffffffffffffffffffffffffffffff1673ffffffffffffffffffffffffffffffffffffffff168152602001908152602001600020805480602002602001604051908101604052809291908181526020018280548015611cfd57602002820191906000526020600020905b815481526020019060010190808311611ce9575b50505050509050919050565b600381565b60006060600080600080600080606080600360008d8152602001908152602001600020600a01548b10611d76576040517f08c379a0000000000000000000000000000000000000000000000000000000008152600401611d6d90613d89565b60405180910390fd5b611d808c8c612787565b809a50819b50829c50505050611d968c8c61287f565b809750819850829950505050611dac8c8c6128d8565b8094508195505050600760008d815260200190815260200160002060008c81526020019081526020016000208054611de390613f1c565b80601f0160208091040260200160405190810160405280929190818152602001828054611e0f90613f1c565b8015611e5c5780601f10611e3157610100808354040283529160200191611e5c565b820191906000526020600020905b815481529060010190602001808311611e3f57829003601f168201915b50505050509150600860008d815260200190815260200160002060008c81526020019081526020016000208054611e9290613f1c565b80601f0160208091040260200160405190810160405280929190818152602001828054611ebe90613f1c565b8015611f0b5780601f10611ee057610100808354040283529160200191611f0b565b820191906000526020600020905b815481529060010190602001808311611eee57829003601f168201915b505050505090509295989b9194979a5092959850565b60036020528060005260406000206000915090508060000154908060010160009054906101000a900473ffffffffffffffffffffffffffffffffffffffff1690806002018054611f7090613f1c565b80601f0160208091040260200160405190810160405280929190818152602001828054611f9c90613f1c565b8015611fe95780601f10611fbe57610100808354040283529160200191611fe9565b820191906000526020600020905b815481529060010190602001808311611fcc57829003601f168201915b505050505090806003018054611ffe90613f1c565b80601f016020809104026020016040519081016040528092919081815260200182805461202a90613f1c565b80156120775780601f1061204c57610100808354040283529160200191612077565b820191906000526020600020905b81548152906001019060200180831161205a57829003601f168201915b50505050509080600401805461208c90613f1c565b80601f01602080910402602001604051908101604052809291908181526020018280546120b890613f1c565b80156121055780601f106120da57610100808354040283529160200191612105565b820191906000526020600020905b8154815290600101906020018083116120e857829003601f168201915b5050505050908060050154908060060160009054906101000a900473ffffffffffffffffffffffffffffffffffffffff16908060070154908060080160009054906101000a900460ff169080600901549080600a015490508b565b60046020528060005260406000206000915090505481565b612180612645565b600073ffffffffffffffffffffffffffffffffffffffff168173ffffffffffffffffffffffffffffffffffffffff1614156121f0576040517f08c379a00000000000000000000000000000000000000000000000000000000081526004016121e790613fc0565b60405180910390fd5b6121f9816126c3565b50565b600060036000858152602001908152602001600020600b01600084815260200190815260200160002060080160008373ffffffffffffffffffffffffffffffffffffffff1673ffffffffffffffffffffffffffffffffffffffff16815260200190815260200160002060009054906101000a900460ff1690509392505050565b6122ff846323b872dd60e01b85858560405160240161229d93929190613fe0565b604051602081830303815290604052907bffffffffffffffffffffffffffffffffffffffffffffffffffffffff19166020820180517bffffffffffffffffffffffffffffffffffffffffffffffffffffffff8381831617835250505050612929565b50505050565b6002600154141561234b576040517f08c379a000000000000000000000000000000000000000000000000000000000815260040161234290614063565b60405180910390fd5b6002600181905550565b60606000604067ffffffffffffffff81111561237457612373612cdf565b5b6040519080825280601f01601f1916602001820160405280156123a65781602001600182028036833780820191505090505b50905060005b60208110156124ef5760008160086123c49190614083565b60026123d09190614210565b8560001c6123de9190614083565b60001b9050600060108260f81c6123f59190614268565b60f81b905060008160f81c601061240c9190614299565b8360f81c61241a91906142d4565b60f81b9050612428826129f1565b858560026124369190614083565b8151811061244757612446614308565b5b60200101907effffffffffffffffffffffffffffffffffffffffffffffffffffffffffffff1916908160001a90535061247f816129f1565b85600186600261248f9190614083565b6124999190613a69565b815181106124aa576124a9614308565b5b60200101907effffffffffffffffffffffffffffffffffffffffffffffffffffffffffffff1916908160001a90535050505080806124e790613613565b9150506123ac565b5080915050919050565b61257a8363a9059cbb60e01b8484604051602401612518929190614337565b604051602081830303815290604052907bffffffffffffffffffffffffffffffffffffffffffffffffffffffff19166020820180517bffffffffffffffffffffffffffffffffffffffffffffffffffffffff8381831617835250505050612929565b505050565b60018081905550565b6000600360008481526020019081526020016000209050600081600b01600084815260200190815260200160002090508060050154816004015411156126215760018160060160006101000a81548160ff0219169083151502179055508160090160008154809291906125fa90613613565b919050555060018160030160006101000a81548160ff02191690831515021790555061263f565b60008160030160006101000a81548160ff0219169083151502179055505b50505050565b61264d612a37565b73ffffffffffffffffffffffffffffffffffffffff1661266b611b6d565b73ffffffffffffffffffffffffffffffffffffffff16146126c1576040517f08c379a00000000000000000000000000000000000000000000000000000000081526004016126b8906143ac565b60405180910390fd5b565b60008060009054906101000a900473ffffffffffffffffffffffffffffffffffffffff169050816000806101000a81548173ffffffffffffffffffffffffffffffffffffffff021916908373ffffffffffffffffffffffffffffffffffffffff1602179055508173ffffffffffffffffffffffffffffffffffffffff168173ffffffffffffffffffffffffffffffffffffffff167f8be0079c531659141344cd1fd0a4f28419497f9722a3daafe3b4186f6b6457e060405160405180910390a35050565b6000606060008060036000878152602001908152602001600020600b01600086815260200190815260200160002090508060000160009054906101000a900473ffffffffffffffffffffffffffffffffffffffff168160010182600201548180546127f190613f1c565b80601f016020809104026020016040519081016040528092919081815260200182805461281d90613f1c565b801561286a5780601f1061283f5761010080835404028352916020019161286a565b820191906000526020600020905b81548152906001019060200180831161284d57829003601f168201915b50505050509150935093509350509250925092565b60008060008060036000878152602001908152602001600020600b01600086815260200190815260200160002090508060030160009054906101000a900460ff1681600401548260050154935093509350509250925092565b600080600060036000868152602001908152602001600020600b01600085815260200190815260200160002090508060060160009054906101000a900460ff16816007015492509250509250929050565b600061298b826040518060400160405280602081526020017f5361666545524332303a206c6f772d6c6576656c2063616c6c206661696c65648152508573ffffffffffffffffffffffffffffffffffffffff16612a3f9092919063ffffffff16565b90506000815114806129ad5750808060200190518101906129ac91906143e1565b5b6129ec576040517f08c379a00000000000000000000000000000000000000000000000000000000081526004016129e390614480565b60405180910390fd5b505050565b6000600a8260f81c60ff161015612a1c5760308260f81c612a1291906144a0565b60f81b9050612a32565b60578260f81c612a2c91906144a0565b60f81b90505b919050565b600033905090565b6060612a4e8484600085612a57565b90509392505050565b606082471015612a9c576040517f08c379a0000000000000000000000000000000000000000000000000000000008152600401612a9390614549565b60405180910390fd5b6000808673ffffffffffffffffffffffffffffffffffffffff168587604051612ac591906145a5565b60006040518083038185875af1925050503d8060008114612b02576040519150601f19603f3d011682016040523d82523d6000602084013e612b07565b606091505b5091509150612b1887838387612b24565b92505050949350505050565b60608315612b8757600083511415612b7f57612b3f85612b9a565b612b7e576040517f08c379a0000000000000000000000000000000000000000000000000000000008152600401612b7590614608565b60405180910390fd5b5b829050612b92565b612b918383612bbd565b5b949350505050565b6000808273ffffffffffffffffffffffffffffffffffffffff163b119050919050565b600082511115612bd05781518083602001fd5b806040517f08c379a0000000000000000000000000000000000000000000000000000000008152600401612c049190613185565b60405180910390fd5b828054612c1990613f1c565b90600052602060002090601f016020900481019282612c3b5760008555612c82565b82601f10612c5457805160ff1916838001178555612c82565b82800160010185558215612c82579182015b82811115612c81578251825591602001919060010190612c66565b5b509050612c8f9190612c93565b5090565b5b80821115612cac576000816000905550600101612c94565b5090565b6000604051905090565b600080fd5b600080fd5b600080fd5b600080fd5b6000601f19601f8301169050919050565b7f4e487b7100000000000000000000000000000000000000000000000000000000600052604160045260246000fd5b612d1782612cce565b810181811067ffffffffffffffff82111715612d3657612d35612cdf565b5b80604052505050565b6000612d49612cb0565b9050612d558282612d0e565b919050565b600067ffffffffffffffff821115612d7557612d74612cdf565b5b612d7e82612cce565b9050602081019050919050565b82818337600083830152505050565b6000612dad612da884612d5a565b612d3f565b905082815260208101848484011115612dc957612dc8612cc9565b5b612dd4848285612d8b565b509392505050565b600082601f830112612df157612df0612cc4565b5b8135612e01848260208601612d9a565b91505092915050565b6000819050919050565b612e1d81612e0a565b8114612e2857600080fd5b50565b600081359050612e3a81612e14565b92915050565b600073ffffffffffffffffffffffffffffffffffffffff82169050919050565b6000612e6b82612e40565b9050919050565b612e7b81612e60565b8114612e8657600080fd5b50565b600081359050612e9881612e72565b92915050565b60008060008060008060c08789031215612ebb57612eba612cba565b5b600087013567ffffffffffffffff811115612ed957612ed8612cbf565b5b612ee589828a01612ddc565b965050602087013567ffffffffffffffff811115612f0657612f05612cbf565b5b612f1289828a01612ddc565b955050604087013567ffffffffffffffff811115612f3357612f32612cbf565b5b612f3f89828a01612ddc565b9450506060612f5089828a01612e2b565b9350506080612f6189828a01612e89565b92505060a0612f7289828a01612e2b565b9150509295509295509295565b612f8881612e0a565b82525050565b6000602082019050612fa36000830184612f7f565b92915050565b600060208284031215612fbf57612fbe612cba565b5b6000612fcd84828501612e2b565b91505092915050565b60008060408385031215612fed57612fec612cba565b5b6000612ffb85828601612e2b565b925050602083013567ffffffffffffffff81111561301c5761301b612cbf565b5b61302885828601612ddc565b9150509250929050565b60008115159050919050565b61304781613032565b811461305257600080fd5b50565b6000813590506130648161303e565b92915050565b60008060006060848603121561308357613082612cba565b5b600061309186828701612e2b565b93505060206130a286828701612e2b565b92505060406130b386828701613055565b9150509250925092565b600080604083850312156130d4576130d3612cba565b5b60006130e285828601612e2b565b92505060206130f385828601612e2b565b9150509250929050565b600081519050919050565b600082825260208201905092915050565b60005b8381101561313757808201518184015260208101905061311c565b83811115613146576000848401525b50505050565b6000613157826130fd565b6131618185613108565b9350613171818560208601613119565b61317a81612cce565b840191505092915050565b6000602082019050818103600083015261319f818461314c565b905092915050565b6000602082840312156131bd576131bc612cba565b5b60006131cb84828501612e89565b91505092915050565b600081519050919050565b600082825260208201905092915050565b6000819050602082019050919050565b61320981612e0a565b82525050565b600061321b8383613200565b60208301905092915050565b6000602082019050919050565b600061323f826131d4565b61324981856131df565b9350613254836131f0565b8060005b8381101561328557815161326c888261320f565b975061327783613227565b925050600181019050613258565b5085935050505092915050565b600060208201905081810360008301526132ac8184613234565b905092915050565b6132bd81612e60565b82525050565b60006020820190506132d860008301846132b4565b92915050565b600080604083850312156132f5576132f4612cba565b5b600061330385828601612e2b565b925050602061331485828601612e89565b9150509250929050565b61332781613032565b82525050565b6000602082019050613342600083018461331e565b92915050565b60006101408201905061335e600083018d6132b4565b8181036020830152613370818c61314c565b905061337f604083018b612f7f565b61338c606083018a61331e565b6133996080830189612f7f565b6133a660a0830188612f7f565b6133b360c083018761331e565b6133c060e0830186612f7f565b8181036101008301526133d3818561314c565b90508181036101208301526133e8818461314c565b90509b9a5050505050505050505050565b60006101608201905061340f600083018e612f7f565b61341c602083018d6132b4565b818103604083015261342e818c61314c565b90508181036060830152613442818b61314c565b90508181036080830152613456818a61314c565b905061346560a0830189612f7f565b61347260c08301886132b4565b61347f60e0830187612f7f565b61348d61010083018661331e565b61349b610120830185612f7f565b6134a9610140830184612f7f565b9c9b505050505050505050505050565b6000806000606084860312156134d2576134d1612cba565b5b60006134e086828701612e2b565b93505060206134f186828701612e2b565b925050604061350286828701612e89565b9150509250925092565b7f446561646c696e65206d75737420626520696e20746865206675747572650000600082015250565b6000613542601e83613108565b915061354d8261350c565b602082019050919050565b6000602082019050818103600083015261357181613535565b9050919050565b7f526577617264206d7573742062652067726561746572207468616e2030000000600082015250565b60006135ae601d83613108565b91506135b982613578565b602082019050919050565b600060208201905081810360008301526135dd816135a1565b9050919050565b7f4e487b7100000000000000000000000000000000000000000000000000000000600052601160045260246000fd5b600061361e82612e0a565b91507fffffffffffffffffffffffffffffffffffffffffffffffffffffffffffffffff821415613651576136506135e4565b5b600182019050919050565b7f4d7573742073656e642065786163742072657761726420616d6f756e74000000600082015250565b6000613692601d83613108565b915061369d8261365c565b602082019050919050565b600060208201905081810360008301526136c181613685565b9050919050565b600060408201905081810360008301526136e2818561314c565b90506136f16020830184612f7f565b9392505050565b7f426f756e747920616c726561647920636f6d706c657465640000000000000000600082015250565b600061372e601883613108565b9150613739826136f8565b602082019050919050565b6000602082019050818103600083015261375d81613721565b9050919050565b7f426f756e747920646561646c696e65206e6f7420726561636865640000000000600082015250565b600061379a601b83613108565b91506137a582613764565b602082019050919050565b600060208201905081810360008301526137c98161378d565b9050919050565b7f4e6f2077696e6e65727320666f756e6400000000000000000000000000000000600082015250565b6000613806601083613108565b9150613811826137d0565b602082019050919050565b60006020820190508181036000830152613835816137f9565b9050919050565b7f4e487b7100000000000000000000000000000000000000000000000000000000600052601260045260246000fd5b600061387682612e0a565b915061388183612e0a565b9250826138915761389061383c565b5b828204905092915050565b60006138a782612e0a565b91506138b283612e0a565b9250826138c2576138c161383c565b5b828206905092915050565b60006138d882612e0a565b915060008214156138ec576138eb6135e4565b5b600182039050919050565b6000819050919050565b61391261390d82612e0a565b6138f7565b82525050565b60008160601b9050919050565b600061393082613918565b9050919050565b600061394282613925565b9050919050565b61395a61395582612e60565b613937565b82525050565b600061396c8288613901565b60208201915061397c8287613901565b60208201915061398c8286613949565b60148201915061399c8285613901565b6020820191506139ac8284613901565b6020820191508190509695505050505050565b600081905092915050565b7f3078000000000000000000000000000000000000000000000000000000000000600082015250565b6000613a006002836139bf565b9150613a0b826139ca565b600282019050919050565b6000613a21826130fd565b613a2b81856139bf565b9350613a3b818560208601613119565b80840191505092915050565b6000613a52826139f3565b9150613a5e8284613a16565b915081905092915050565b6000613a7482612e0a565b9150613a7f83612e0a565b9250827fffffffffffffffffffffffffffffffffffffffffffffffffffffffffffffffff03821115613ab457613ab36135e4565b5b828201905092915050565b600081905092915050565b50565b6000613ada600083613abf565b9150613ae582613aca565b600082019050919050565b6000613afb82613acd565b9150819050919050565b7f5472616e73666572206661696c65640000000000000000000000000000000000600082015250565b6000613b3b600f83613108565b9150613b4682613b05565b602082019050919050565b60006020820190508181036000830152613b6a81613b2e565b9050919050565b6000604082019050613b866000830185612f7f565b8181036020830152613b98818461314c565b90509392505050565b7f426f756e747920646561646c696e652068617320706173736564000000000000600082015250565b6000613bd7601a83613108565b9150613be282613ba1565b602082019050919050565b60006020820190508181036000830152613c0681613bca565b9050919050565b7f496e76616c69642070726f6f662068617368206c656e67746800000000000000600082015250565b6000613c43601983613108565b9150613c4e82613c0d565b602082019050919050565b60006020820190508181036000830152613c7281613c36565b9050919050565b7f416c7265616479207375626d697474656420612070726f6f6600000000000000600082015250565b6000613caf601983613108565b9150613cba82613c79565b602082019050919050565b60006020820190508181036000830152613cde81613ca2565b9050919050565b6000613cf2600083613108565b9150613cfd82613aca565b600082019050919050565b60006040820190508181036000830152613d22818461314c565b90508181036020830152613d3581613ce5565b905092915050565b7f496e76616c6964207375626d697373696f6e2049440000000000000000000000600082015250565b6000613d73601583613108565b9150613d7e82613d3d565b602082019050919050565b60006020820190508181036000830152613da281613d66565b9050919050565b7f416c726561647920766f74656400000000000000000000000000000000000000600082015250565b6000613ddf600d83613108565b9150613dea82613da9565b602082019050919050565b60006020820190508181036000830152613e0e81613dd2565b9050919050565b7f43616e6e6f7420766f7465206f6e206f776e207375626d697373696f6e000000600082015250565b6000613e4b601d83613108565b9150613e5682613e15565b602082019050919050565b60006020820190508181036000830152613e7a81613e3e565b9050919050565b7f4d6178696d756d20766f74657320726561636865640000000000000000000000600082015250565b6000613eb7601583613108565b9150613ec282613e81565b602082019050919050565b60006020820190508181036000830152613ee681613eaa565b9050919050565b7f4e487b7100000000000000000000000000000000000000000000000000000000600052602260045260246000fd5b60006002820490506001821680613f3457607f821691505b60208210811415613f4857613f47613eed565b5b50919050565b7f4f776e61626c653a206e6577206f776e657220697320746865207a65726f206160008201527f6464726573730000000000000000000000000000000000000000000000000000602082015250565b6000613faa602683613108565b9150613fb582613f4e565b604082019050919050565b60006020820190508181036000830152613fd981613f9d565b9050919050565b6000606082019050613ff560008301866132b4565b61400260208301856132b4565b61400f6040830184612f7f565b949350505050565b7f5265656e7472616e637947756172643a207265656e7472616e742063616c6c00600082015250565b600061404d601f83613108565b915061405882614017565b602082019050919050565b6000602082019050818103600083015261407c81614040565b9050919050565b600061408e82612e0a565b915061409983612e0a565b9250817fffffffffffffffffffffffffffffffffffffffffffffffffffffffffffffffff04831182151516156140d2576140d16135e4565b5b828202905092915050565b60008160011c9050919050565b6000808291508390505b6001851115614134578086048111156141105761410f6135e4565b5b600185161561411f5780820291505b808102905061412d856140dd565b94506140f4565b94509492505050565b60008261414d5760019050614209565b8161415b5760009050614209565b8160018114614171576002811461417b576141aa565b6001915050614209565b60ff84111561418d5761418c6135e4565b5b8360020a9150848211156141a4576141a36135e4565b5b50614209565b5060208310610133831016604e8410600b84101617156141df5782820a9050838111156141da576141d96135e4565b5b614209565b6141ec84848460016140ea565b92509050818404811115614203576142026135e4565b5b81810290505b9392505050565b600061421b82612e0a565b915061422683612e0a565b92506142537fffffffffffffffffffffffffffffffffffffffffffffffffffffffffffffffff848461413d565b905092915050565b600060ff82169050919050565b60006142738261425b565b915061427e8361425b565b92508261428e5761428d61383c565b5b828204905092915050565b60006142a48261425b565b91506142af8361425b565b92508160ff04831182151516156142c9576142c86135e4565b5b828202905092915050565b60006142df8261425b565b91506142ea8361425b565b9250828210156142fd576142fc6135e4565b5b828203905092915050565b7f4e487b7100000000000000000000000000000000000000000000000000000000600052603260045260246000fd5b600060408201905061434c60008301856132b4565b6143596020830184612f7f565b9392505050565b7f4f776e61626c653a2063616c6c6572206973206e6f7420746865206f776e6572600082015250565b6000614396602083613108565b91506143a182614360565b602082019050919050565b600060208201905081810360008301526143c581614389565b9050919050565b6000815190506143db8161303e565b92915050565b6000602082840312156143f7576143f6612cba565b5b6000614405848285016143cc565b91505092915050565b7f5361666545524332303a204552433230206f7065726174696f6e20646964206e60008201527f6f74207375636365656400000000000000000000000000000000000000000000602082015250565b600061446a602a83613108565b91506144758261440e565b604082019050919050565b600060208201905081810360008301526144998161445d565b9050919050565b60006144ab8261425b565b91506144b68361425b565b92508260ff038211156144cc576144cb6135e4565b5b828201905092915050565b7f416464726573733a20696e73756666696369656e742062616c616e636520666f60008201527f722063616c6c0000000000000000000000000000000000000000000000000000602082015250565b6000614533602683613108565b915061453e826144d7565b604082019050919050565b6000602082019050818103600083015261456281614526565b9050919050565b600081519050919050565b600061457f82614569565b6145898185613abf565b9350614599818560208601613119565b80840191505092915050565b60006145b18284614574565b915081905092915050565b7f416464726573733a2063616c6c20746f206e6f6e2d636f6e7472616374000000600082015250565b60006145f2601d83613108565b91506145fd826145bc565b602082019050919050565b60006020820190508181036000830152614621816145e5565b905091905056fea2646970667358221220c40a63bf14e1f9e98b655537aea1853bd24547a26c271286272b1664b9ec4d6064736f6c634300080a0033",
  "linkReferences": {},
  "deployedLinkReferences": {}
}