{
    "_format": "hh-sol-artifact-1",
    "contractName": "CommunityBountyBoard",
    "sourceName": "contracts/CommuntyBoard.sol",
    "abi": [
        {
            "inputs": [],
            "stateMutability": "nonpayable",
            "type": "constructor"
        },
        {
            "anonymous": false,
            "inputs": [
                {
                    "indexed": true,
                    "internalType": "uint256",
                    "name": "bountyId",
                    "type": "uint256"
                },
                {
                    "indexed": true,
                    "internalType": "address",
                    "name": "approver",
                    "type": "address"
                }
            ],
            "name": "BountyApproved",
            "type": "event"
        },
        {
            "anonymous": false,
            "inputs": [
                {
                    "indexed": true,
                    "internalType": "uint256",
                    "name": "bountyId",
                    "type": "uint256"
                },
                {
                    "indexed": true,
                    "internalType": "address",
                    "name": "creator",
                    "type": "address"
                }
            ],
            "name": "BountyCanceled",
            "type": "event"
        },
        {
            "anonymous": false,
            "inputs": [
                {
                    "indexed": true,
                    "internalType": "uint256",
                    "name": "bountyId",
                    "type": "uint256"
                },
                {
                    "indexed": true,
                    "internalType": "address",
                    "name": "winner",
                    "type": "address"
                },
                {
                    "indexed": false,
                    "internalType": "uint256",
                    "name": "reward",
                    "type": "uint256"
                }
            ],
            "name": "BountyCompleted",
            "type": "event"
        },
        {
            "anonymous": false,
            "inputs": [
                {
                    "indexed": true,
                    "internalType": "uint256",
                    "name": "bountyId",
                    "type": "uint256"
                },
                {
                    "indexed": true,
                    "internalType": "address",
                    "name": "creator",
                    "type": "address"
                },
                {
                    "indexed": false,
                    "internalType": "string",
                    "name": "title",
                    "type": "string"
                },
                {
                    "indexed": false,
                    "internalType": "uint256",
                    "name": "reward",
                    "type": "uint256"
                }
            ],
            "name": "BountyCreated",
            "type": "event"
        },
        {
            "anonymous": false,
            "inputs": [
                {
                    "indexed": true,
                    "internalType": "address",
                    "name": "previousOwner",
                    "type": "address"
                },
                {
                    "indexed": true,
                    "internalType": "address",
                    "name": "newOwner",
                    "type": "address"
                }
            ],
            "name": "OwnershipTransferred",
            "type": "event"
        },
        {
            "anonymous": false,
            "inputs": [
                {
                    "indexed": true,
                    "internalType": "uint256",
                    "name": "bountyId",
                    "type": "uint256"
                },
                {
                    "indexed": true,
                    "internalType": "address",
                    "name": "submitter",
                    "type": "address"
                },
                {
                    "indexed": false,
                    "internalType": "string",
                    "name": "ipfsProofHash",
                    "type": "string"
                }
            ],
            "name": "ProofSubmitted",
            "type": "event"
        },
        {
            "inputs": [
                {
                    "internalType": "uint256",
                    "name": "_bountyId",
                    "type": "uint256"
                }
            ],
            "name": "approveSubmission",
            "outputs": [],
            "stateMutability": "nonpayable",
            "type": "function"
        },
        {
            "inputs": [
                {
                    "internalType": "uint256",
                    "name": "",
                    "type": "uint256"
                }
            ],
            "name": "bounties",
            "outputs": [
                {
                    "internalType": "uint256",
                    "name": "id",
                    "type": "uint256"
                },
                {
                    "internalType": "address",
                    "name": "creator",
                    "type": "address"
                },
                {
                    "internalType": "string",
                    "name": "title",
                    "type": "string"
                },
                {
                    "internalType": "string",
                    "name": "description",
                    "type": "string"
                },
                {
                    "internalType": "string",
                    "name": "proofRequirements",
                    "type": "string"
                },
                {
                    "internalType": "uint256",
                    "name": "reward",
                    "type": "uint256"
                },
                {
                    "internalType": "address",
                    "name": "rewardToken",
                    "type": "address"
                },
                {
                    "internalType": "uint256",
                    "name": "deadline",
                    "type": "uint256"
                },
                {
                    "internalType": "bool",
                    "name": "completed",
                    "type": "bool"
                },
                {
                    "internalType": "address",
                    "name": "winner",
                    "type": "address"
                },
                {
                    "internalType": "string",
                    "name": "ipfsProofHash",
                    "type": "string"
                },
                {
                    "internalType": "uint256",
                    "name": "approvalCount",
                    "type": "uint256"
                }
            ],
            "stateMutability": "view",
            "type": "function"
        },
        {
            "inputs": [],
            "name": "bountyCount",
            "outputs": [
                {
                    "internalType": "uint256",
                    "name": "",
                    "type": "uint256"
                }
            ],
            "stateMutability": "view",
            "type": "function"
        },
        {
            "inputs": [
                {
                    "internalType": "uint256",
                    "name": "_bountyId",
                    "type": "uint256"
                }
            ],
            "name": "cancelBounty",
            "outputs": [],
            "stateMutability": "nonpayable",
            "type": "function"
        },
        {
            "inputs": [
                {
                    "internalType": "string",
                    "name": "_title",
                    "type": "string"
                },
                {
                    "internalType": "string",
                    "name": "_description",
                    "type": "string"
                },
                {
                    "internalType": "string",
                    "name": "_proofRequirements",
                    "type": "string"
                },
                {
                    "internalType": "uint256",
                    "name": "_reward",
                    "type": "uint256"
                },
                {
                    "internalType": "address",
                    "name": "_rewardToken",
                    "type": "address"
                },
                {
                    "internalType": "uint256",
                    "name": "_deadline",
                    "type": "uint256"
                }
            ],
            "name": "createBounty",
            "outputs": [
                {
                    "internalType": "uint256",
                    "name": "",
                    "type": "uint256"
                }
            ],
            "stateMutability": "payable",
            "type": "function"
        },
        {
            "inputs": [
                {
                    "internalType": "uint256",
                    "name": "_bountyId",
                    "type": "uint256"
                }
            ],
            "name": "getBountyDetails",
            "outputs": [
                {
                    "internalType": "address",
                    "name": "creator",
                    "type": "address"
                },
                {
                    "internalType": "string",
                    "name": "title",
                    "type": "string"
                },
                {
                    "internalType": "string",
                    "name": "description",
                    "type": "string"
                },
                {
                    "internalType": "string",
                    "name": "proofRequirements",
                    "type": "string"
                },
                {
                    "internalType": "uint256",
                    "name": "reward",
                    "type": "uint256"
                },
                {
                    "internalType": "address",
                    "name": "rewardToken",
                    "type": "address"
                },
                {
                    "internalType": "uint256",
                    "name": "deadline",
                    "type": "uint256"
                },
                {
                    "internalType": "bool",
                    "name": "completed",
                    "type": "bool"
                },
                {
                    "internalType": "address",
                    "name": "winner",
                    "type": "address"
                },
                {
                    "internalType": "string",
                    "name": "ipfsProofHash",
                    "type": "string"
                },
                {
                    "internalType": "uint256",
                    "name": "approvalCount",
                    "type": "uint256"
                }
            ],
            "stateMutability": "view",
            "type": "function"
        },
        {
            "inputs": [
                {
                    "internalType": "uint256",
                    "name": "_bountyId",
                    "type": "uint256"
                },
                {
                    "internalType": "address",
                    "name": "_user",
                    "type": "address"
                }
            ],
            "name": "hasVotedOnBounty",
            "outputs": [
                {
                    "internalType": "bool",
                    "name": "",
                    "type": "bool"
                }
            ],
            "stateMutability": "view",
            "type": "function"
        },
        {
            "inputs": [],
            "name": "minimumApprovals",
            "outputs": [
                {
                    "internalType": "uint256",
                    "name": "",
                    "type": "uint256"
                }
            ],
            "stateMutability": "view",
            "type": "function"
        },
        {
            "inputs": [],
            "name": "owner",
            "outputs": [
                {
                    "internalType": "address",
                    "name": "",
                    "type": "address"
                }
            ],
            "stateMutability": "view",
            "type": "function"
        },
        {
            "inputs": [],
            "name": "renounceOwnership",
            "outputs": [],
            "stateMutability": "nonpayable",
            "type": "function"
        },
        {
            "inputs": [
                {
                    "internalType": "uint256",
                    "name": "_minimumApprovals",
                    "type": "uint256"
                }
            ],
            "name": "setMinimumApprovals",
            "outputs": [],
            "stateMutability": "nonpayable",
            "type": "function"
        },
        {
            "inputs": [
                {
                    "internalType": "uint256",
                    "name": "_bountyId",
                    "type": "uint256"
                },
                {
                    "internalType": "string",
                    "name": "_ipfsProofHash",
                    "type": "string"
                }
            ],
            "name": "submitProof",
            "outputs": [],
            "stateMutability": "nonpayable",
            "type": "function"
        },
        {
            "inputs": [
                {
                    "internalType": "address",
                    "name": "newOwner",
                    "type": "address"
                }
            ],
            "name": "transferOwnership",
            "outputs": [],
            "stateMutability": "nonpayable",
            "type": "function"
        },
        {
            "inputs": [
                {
                    "internalType": "address",
                    "name": "",
                    "type": "address"
                }
            ],
            "name": "userReputation",
            "outputs": [
                {
                    "internalType": "uint256",
                    "name": "",
                    "type": "uint256"
                }
            ],
            "stateMutability": "view",
            "type": "function"
        }
    ],
    "bytecode": "0x608060405260036002553480156200001657600080fd5b50620000376200002b6200003d60201b60201c565b6200004560201b60201c565b62000109565b600033905090565b60008060009054906101000a900473ffffffffffffffffffffffffffffffffffffffff169050816000806101000a81548173ffffffffffffffffffffffffffffffffffffffff021916908373ffffffffffffffffffffffffffffffffffffffff1602179055508173ffffffffffffffffffffffffffffffffffffffff168173ffffffffffffffffffffffffffffffffffffffff167f8be0079c531659141344cd1fd0a4f28419497f9722a3daafe3b4186f6b6457e060405160405180910390a35050565b612df580620001196000396000f3fe6080604052600436106100dd5760003560e01c8063cfe096501161007f578063e503bb0511610059578063e503bb05146102aa578063e5e5dff1146102e7578063f0f284fc14610310578063f2fde38b14610357576100dd565b8063cfe096501461020e578063d72a01ef14610239578063dc2f874414610262576100dd565b80633e362c96116100bb5780633e362c9614610178578063715018a6146101a357806380fd0fb3146101ba5780638da5cb5b146101e3576100dd565b806301767dd3146100e2578063269e2d56146101125780632af005101461014f575b600080fd5b6100fc60048036038101906100f79190611fb5565b610380565b60405161010991906120a5565b60405180910390f35b34801561011e57600080fd5b50610139600480360381019061013491906120c0565b6105ec565b604051610146919061211b565b60405180910390f35b34801561015b57600080fd5b5061017660048036038101906101719190612136565b610657565b005b34801561018457600080fd5b5061018d6107b7565b60405161019a91906120a5565b60405180910390f35b3480156101af57600080fd5b506101b86107bd565b005b3480156101c657600080fd5b506101e160048036038101906101dc9190612192565b6107d1565b005b3480156101ef57600080fd5b506101f8610ac3565b60405161020591906121ce565b60405180910390f35b34801561021a57600080fd5b50610223610aec565b60405161023091906120a5565b60405180910390f35b34801561024557600080fd5b50610260600480360381019061025b9190612192565b610af2565b005b34801561026e57600080fd5b5061028960048036038101906102849190612192565b610b47565b6040516102a19c9b9a99989796959493929190612271565b60405180910390f35b3480156102b657600080fd5b506102d160048036038101906102cc9190612347565b610e34565b6040516102de91906120a5565b60405180910390f35b3480156102f357600080fd5b5061030e60048036038101906103099190612192565b610e4c565b005b34801561031c57600080fd5b5061033760048036038101906103329190612192565b6111a8565b60405161034e9b9a99989796959493929190612374565b60405180910390f35b34801561036357600080fd5b5061037e60048036038101906103799190612347565b6114c7565b005b60004282116103c4576040517f08c379a00000000000000000000000000000000000000000000000000000000081526004016103bb90612487565b60405180910390fd5b6000600160008154809291906103d9906124d6565b9190505590506000600360008381526020019081526020016000209050818160000181905550338160010160006101000a81548173ffffffffffffffffffffffffffffffffffffffff021916908373ffffffffffffffffffffffffffffffffffffffff1602179055508881600201908051906020019061045a929190611d24565b5087816003019080519060200190610473929190611d24565b508681600401908051906020019061048c929190611d24565b50858160050181905550848160060160006101000a81548173ffffffffffffffffffffffffffffffffffffffff021916908373ffffffffffffffffffffffffffffffffffffffff160217905550838160070181905550600073ffffffffffffffffffffffffffffffffffffffff168573ffffffffffffffffffffffffffffffffffffffff16141561055e57853414610559576040517f08c379a00000000000000000000000000000000000000000000000000000000081526004016105509061256b565b60405180910390fd5b61058c565b61058b3330888873ffffffffffffffffffffffffffffffffffffffff1661154b909392919063ffffffff16565b5b3373ffffffffffffffffffffffffffffffffffffffff16827f64b439309954f148e681118e8f6556d39f6204a461e3307190a6928618ff26558b896040516105d592919061258b565b60405180910390a381925050509695505050505050565b600060036000848152602001908152602001600020600b0160008373ffffffffffffffffffffffffffffffffffffffff1673ffffffffffffffffffffffffffffffffffffffff16815260200190815260200160002060009054906101000a900460ff16905092915050565b60006003600084815260200190815260200160002090508060080160009054906101000a900460ff16156106c0576040517f08c379a00000000000000000000000000000000000000000000000000000000081526004016106b790612607565b60405180910390fd5b8060070154421115610707576040517f08c379a00000000000000000000000000000000000000000000000000000000081526004016106fe90612673565b60405180910390fd5b8181600901908051906020019061071f929190611d24565b50338160080160016101000a81548173ffffffffffffffffffffffffffffffffffffffff021916908373ffffffffffffffffffffffffffffffffffffffff1602179055503373ffffffffffffffffffffffffffffffffffffffff16837fb2217a1ebc8d6435d328a4607aa9709269fe4cb393535a1675721d8431a54018846040516107aa9190612693565b60405180910390a3505050565b60015481565b6107c56115d4565b6107cf6000611652565b565b60006003600083815260200190815260200160002090508060080160009054906101000a900460ff161561083a576040517f08c379a000000000000000000000000000000000000000000000000000000000815260040161083190612607565b60405180910390fd5b600073ffffffffffffffffffffffffffffffffffffffff168160080160019054906101000a900473ffffffffffffffffffffffffffffffffffffffff1673ffffffffffffffffffffffffffffffffffffffff1614156108ce576040517f08c379a00000000000000000000000000000000000000000000000000000000081526004016108c590612701565b60405180910390fd5b80600b0160003373ffffffffffffffffffffffffffffffffffffffff1673ffffffffffffffffffffffffffffffffffffffff16815260200190815260200160002060009054906101000a900460ff161561095d576040517f08c379a00000000000000000000000000000000000000000000000000000000081526004016109549061276d565b60405180910390fd5b8060080160019054906101000a900473ffffffffffffffffffffffffffffffffffffffff1673ffffffffffffffffffffffffffffffffffffffff163373ffffffffffffffffffffffffffffffffffffffff1614156109f0576040517f08c379a00000000000000000000000000000000000000000000000000000000081526004016109e7906127d9565b60405180910390fd5b600181600b0160003373ffffffffffffffffffffffffffffffffffffffff1673ffffffffffffffffffffffffffffffffffffffff16815260200190815260200160002060006101000a81548160ff02191690831515021790555080600a016000815480929190610a5f906124d6565b91905055503373ffffffffffffffffffffffffffffffffffffffff16827f8fb3e89720f5f3732f08285d4110a82e719304cafb9028c0dbdc805f92a4b04160405160405180910390a360025481600a015410610abf57610abe82611716565b5b5050565b60008060009054906101000a900473ffffffffffffffffffffffffffffffffffffffff16905090565b60025481565b610afa6115d4565b60008111610b3d576040517f08c379a0000000000000000000000000000000000000000000000000000000008152600401610b349061286b565b60405180910390fd5b8060028190555050565b60036020528060005260406000206000915090508060000154908060010160009054906101000a900473ffffffffffffffffffffffffffffffffffffffff1690806002018054610b96906128ba565b80601f0160208091040260200160405190810160405280929190818152602001828054610bc2906128ba565b8015610c0f5780601f10610be457610100808354040283529160200191610c0f565b820191906000526020600020905b815481529060010190602001808311610bf257829003601f168201915b505050505090806003018054610c24906128ba565b80601f0160208091040260200160405190810160405280929190818152602001828054610c50906128ba565b8015610c9d5780601f10610c7257610100808354040283529160200191610c9d565b820191906000526020600020905b815481529060010190602001808311610c8057829003601f168201915b505050505090806004018054610cb2906128ba565b80601f0160208091040260200160405190810160405280929190818152602001828054610cde906128ba565b8015610d2b5780601f10610d0057610100808354040283529160200191610d2b565b820191906000526020600020905b815481529060010190602001808311610d0e57829003601f168201915b5050505050908060050154908060060160009054906101000a900473ffffffffffffffffffffffffffffffffffffffff16908060070154908060080160009054906101000a900460ff16908060080160019054906101000a900473ffffffffffffffffffffffffffffffffffffffff1690806009018054610dab906128ba565b80601f0160208091040260200160405190810160405280929190818152602001828054610dd7906128ba565b8015610e245780601f10610df957610100808354040283529160200191610e24565b820191906000526020600020905b815481529060010190602001808311610e0757829003601f168201915b50505050509080600a015490508c565b60046020528060005260406000206000915090505481565b60006003600083815260200190815260200160002090508060010160009054906101000a900473ffffffffffffffffffffffffffffffffffffffff1673ffffffffffffffffffffffffffffffffffffffff163373ffffffffffffffffffffffffffffffffffffffff1614610ef5576040517f08c379a0000000000000000000000000000000000000000000000000000000008152600401610eec90612938565b60405180910390fd5b8060080160009054906101000a900460ff1615610f47576040517f08c379a0000000000000000000000000000000000000000000000000000000008152600401610f3e90612607565b60405180910390fd5b600073ffffffffffffffffffffffffffffffffffffffff168160080160019054906101000a900473ffffffffffffffffffffffffffffffffffffffff1673ffffffffffffffffffffffffffffffffffffffff1614610fda576040517f08c379a0000000000000000000000000000000000000000000000000000000008152600401610fd1906129a4565b60405180910390fd5b600073ffffffffffffffffffffffffffffffffffffffff168160060160009054906101000a900473ffffffffffffffffffffffffffffffffffffffff1673ffffffffffffffffffffffffffffffffffffffff1614156110a7578060010160009054906101000a900473ffffffffffffffffffffffffffffffffffffffff1673ffffffffffffffffffffffffffffffffffffffff166108fc82600501549081150290604051600060405180830381858888f193505050501580156110a1573d6000803e3d6000fd5b5061111f565b61111e8160010160009054906101000a900473ffffffffffffffffffffffffffffffffffffffff1682600501548360060160009054906101000a900473ffffffffffffffffffffffffffffffffffffffff1673ffffffffffffffffffffffffffffffffffffffff16611a009092919063ffffffff16565b5b60018160080160006101000a81548160ff0219169083151502179055508060010160009054906101000a900473ffffffffffffffffffffffffffffffffffffffff1673ffffffffffffffffffffffffffffffffffffffff16827f83a5e724bfe3ed42eec12318b4a507a7303a396127b3b7711c538df9b2d14f4960405160405180910390a35050565b6000606080606060008060008060006060600080600360008e815260200190815260200160002090508060010160009054906101000a900473ffffffffffffffffffffffffffffffffffffffff1681600201826003018360040184600501548560060160009054906101000a900473ffffffffffffffffffffffffffffffffffffffff1686600701548760080160009054906101000a900460ff168860080160019054906101000a900473ffffffffffffffffffffffffffffffffffffffff16896009018a600a015489805461127d906128ba565b80601f01602080910402602001604051908101604052809291908181526020018280546112a9906128ba565b80156112f65780601f106112cb576101008083540402835291602001916112f6565b820191906000526020600020905b8154815290600101906020018083116112d957829003601f168201915b50505050509950888054611309906128ba565b80601f0160208091040260200160405190810160405280929190818152602001828054611335906128ba565b80156113825780601f1061135757610100808354040283529160200191611382565b820191906000526020600020905b81548152906001019060200180831161136557829003601f168201915b50505050509850878054611395906128ba565b80601f01602080910402602001604051908101604052809291908181526020018280546113c1906128ba565b801561140e5780601f106113e35761010080835404028352916020019161140e565b820191906000526020600020905b8154815290600101906020018083116113f157829003601f168201915b50505050509750818054611421906128ba565b80601f016020809104026020016040519081016040528092919081815260200182805461144d906128ba565b801561149a5780601f1061146f5761010080835404028352916020019161149a565b820191906000526020600020905b81548152906001019060200180831161147d57829003601f168201915b505050505091509b509b509b509b509b509b509b509b509b509b509b505091939597999b90929496989a50565b6114cf6115d4565b600073ffffffffffffffffffffffffffffffffffffffff168173ffffffffffffffffffffffffffffffffffffffff16141561153f576040517f08c379a000000000000000000000000000000000000000000000000000000000815260040161153690612a36565b60405180910390fd5b61154881611652565b50565b6115ce846323b872dd60e01b85858560405160240161156c93929190612a56565b604051602081830303815290604052907bffffffffffffffffffffffffffffffffffffffffffffffffffffffff19166020820180517bffffffffffffffffffffffffffffffffffffffffffffffffffffffff8381831617835250505050611a86565b50505050565b6115dc611b4e565b73ffffffffffffffffffffffffffffffffffffffff166115fa610ac3565b73ffffffffffffffffffffffffffffffffffffffff1614611650576040517f08c379a000000000000000000000000000000000000000000000000000000000815260040161164790612ad9565b60405180910390fd5b565b60008060009054906101000a900473ffffffffffffffffffffffffffffffffffffffff169050816000806101000a81548173ffffffffffffffffffffffffffffffffffffffff021916908373ffffffffffffffffffffffffffffffffffffffff1602179055508173ffffffffffffffffffffffffffffffffffffffff168173ffffffffffffffffffffffffffffffffffffffff167f8be0079c531659141344cd1fd0a4f28419497f9722a3daafe3b4186f6b6457e060405160405180910390a35050565b600060036000838152602001908152602001600020905060018160080160006101000a81548160ff021916908315150217905550600a600460008360080160019054906101000a900473ffffffffffffffffffffffffffffffffffffffff1673ffffffffffffffffffffffffffffffffffffffff1673ffffffffffffffffffffffffffffffffffffffff16815260200190815260200160002060008282546117be9190612af9565b925050819055506005600460008360010160009054906101000a900473ffffffffffffffffffffffffffffffffffffffff1673ffffffffffffffffffffffffffffffffffffffff1673ffffffffffffffffffffffffffffffffffffffff16815260200190815260200160002060008282546118399190612af9565b92505081905550600073ffffffffffffffffffffffffffffffffffffffff168160060160009054906101000a900473ffffffffffffffffffffffffffffffffffffffff1673ffffffffffffffffffffffffffffffffffffffff16141561190d578060080160019054906101000a900473ffffffffffffffffffffffffffffffffffffffff1673ffffffffffffffffffffffffffffffffffffffff166108fc82600501549081150290604051600060405180830381858888f19350505050158015611907573d6000803e3d6000fd5b50611985565b6119848160080160019054906101000a900473ffffffffffffffffffffffffffffffffffffffff1682600501548360060160009054906101000a900473ffffffffffffffffffffffffffffffffffffffff1673ffffffffffffffffffffffffffffffffffffffff16611a009092919063ffffffff16565b5b8060080160019054906101000a900473ffffffffffffffffffffffffffffffffffffffff1673ffffffffffffffffffffffffffffffffffffffff16827f285d0f935b4d6592b80efc46cc3d9eb3e93e27fe245f0a6c2b5b9a9d04800ee783600501546040516119f491906120a5565b60405180910390a35050565b611a818363a9059cbb60e01b8484604051602401611a1f929190612b4f565b604051602081830303815290604052907bffffffffffffffffffffffffffffffffffffffffffffffffffffffff19166020820180517bffffffffffffffffffffffffffffffffffffffffffffffffffffffff8381831617835250505050611a86565b505050565b6000611ae8826040518060400160405280602081526020017f5361666545524332303a206c6f772d6c6576656c2063616c6c206661696c65648152508573ffffffffffffffffffffffffffffffffffffffff16611b569092919063ffffffff16565b9050600081511480611b0a575080806020019051810190611b099190612ba4565b5b611b49576040517f08c379a0000000000000000000000000000000000000000000000000000000008152600401611b4090612c43565b60405180910390fd5b505050565b600033905090565b6060611b658484600085611b6e565b90509392505050565b606082471015611bb3576040517f08c379a0000000000000000000000000000000000000000000000000000000008152600401611baa90612cd5565b60405180910390fd5b6000808673ffffffffffffffffffffffffffffffffffffffff168587604051611bdc9190612d3c565b60006040518083038185875af1925050503d8060008114611c19576040519150601f19603f3d011682016040523d82523d6000602084013e611c1e565b606091505b5091509150611c2f87838387611c3b565b92505050949350505050565b60608315611c9e57600083511415611c9657611c5685611cb1565b611c95576040517f08c379a0000000000000000000000000000000000000000000000000000000008152600401611c8c90612d9f565b60405180910390fd5b5b829050611ca9565b611ca88383611cd4565b5b949350505050565b6000808273ffffffffffffffffffffffffffffffffffffffff163b119050919050565b600082511115611ce75781518083602001fd5b806040517f08c379a0000000000000000000000000000000000000000000000000000000008152600401611d1b9190612693565b60405180910390fd5b828054611d30906128ba565b90600052602060002090601f016020900481019282611d525760008555611d99565b82601f10611d6b57805160ff1916838001178555611d99565b82800160010185558215611d99579182015b82811115611d98578251825591602001919060010190611d7d565b5b509050611da69190611daa565b5090565b5b80821115611dc3576000816000905550600101611dab565b5090565b6000604051905090565b600080fd5b600080fd5b600080fd5b600080fd5b6000601f19601f8301169050919050565b7f4e487b7100000000000000000000000000000000000000000000000000000000600052604160045260246000fd5b611e2e82611de5565b810181811067ffffffffffffffff82111715611e4d57611e4c611df6565b5b80604052505050565b6000611e60611dc7565b9050611e6c8282611e25565b919050565b600067ffffffffffffffff821115611e8c57611e8b611df6565b5b611e9582611de5565b9050602081019050919050565b82818337600083830152505050565b6000611ec4611ebf84611e71565b611e56565b905082815260208101848484011115611ee057611edf611de0565b5b611eeb848285611ea2565b509392505050565b600082601f830112611f0857611f07611ddb565b5b8135611f18848260208601611eb1565b91505092915050565b6000819050919050565b611f3481611f21565b8114611f3f57600080fd5b50565b600081359050611f5181611f2b565b92915050565b600073ffffffffffffffffffffffffffffffffffffffff82169050919050565b6000611f8282611f57565b9050919050565b611f9281611f77565b8114611f9d57600080fd5b50565b600081359050611faf81611f89565b92915050565b60008060008060008060c08789031215611fd257611fd1611dd1565b5b600087013567ffffffffffffffff811115611ff057611fef611dd6565b5b611ffc89828a01611ef3565b965050602087013567ffffffffffffffff81111561201d5761201c611dd6565b5b61202989828a01611ef3565b955050604087013567ffffffffffffffff81111561204a57612049611dd6565b5b61205689828a01611ef3565b945050606061206789828a01611f42565b935050608061207889828a01611fa0565b92505060a061208989828a01611f42565b9150509295509295509295565b61209f81611f21565b82525050565b60006020820190506120ba6000830184612096565b92915050565b600080604083850312156120d7576120d6611dd1565b5b60006120e585828601611f42565b92505060206120f685828601611fa0565b9150509250929050565b60008115159050919050565b61211581612100565b82525050565b6000602082019050612130600083018461210c565b92915050565b6000806040838503121561214d5761214c611dd1565b5b600061215b85828601611f42565b925050602083013567ffffffffffffffff81111561217c5761217b611dd6565b5b61218885828601611ef3565b9150509250929050565b6000602082840312156121a8576121a7611dd1565b5b60006121b684828501611f42565b91505092915050565b6121c881611f77565b82525050565b60006020820190506121e360008301846121bf565b92915050565b600081519050919050565b600082825260208201905092915050565b60005b83811015612223578082015181840152602081019050612208565b83811115612232576000848401525b50505050565b6000612243826121e9565b61224d81856121f4565b935061225d818560208601612205565b61226681611de5565b840191505092915050565b600061018082019050612287600083018f612096565b612294602083018e6121bf565b81810360408301526122a6818d612238565b905081810360608301526122ba818c612238565b905081810360808301526122ce818b612238565b90506122dd60a083018a612096565b6122ea60c08301896121bf565b6122f760e0830188612096565b61230561010083018761210c565b6123136101208301866121bf565b8181036101408301526123268185612238565b9050612336610160830184612096565b9d9c50505050505050505050505050565b60006020828403121561235d5761235c611dd1565b5b600061236b84828501611fa0565b91505092915050565b60006101608201905061238a600083018e6121bf565b818103602083015261239c818d612238565b905081810360408301526123b0818c612238565b905081810360608301526123c4818b612238565b90506123d3608083018a612096565b6123e060a08301896121bf565b6123ed60c0830188612096565b6123fa60e083018761210c565b6124086101008301866121bf565b81810361012083015261241b8185612238565b905061242b610140830184612096565b9c9b505050505050505050505050565b7f446561646c696e65206d75737420626520696e20746865206675747572650000600082015250565b6000612471601e836121f4565b915061247c8261243b565b602082019050919050565b600060208201905081810360008301526124a081612464565b9050919050565b7f4e487b7100000000000000000000000000000000000000000000000000000000600052601160045260246000fd5b60006124e182611f21565b91507fffffffffffffffffffffffffffffffffffffffffffffffffffffffffffffffff821415612514576125136124a7565b5b600182019050919050565b7f4d7573742073656e642065786163742072657761726420616d6f756e74000000600082015250565b6000612555601d836121f4565b91506125608261251f565b602082019050919050565b6000602082019050818103600083015261258481612548565b9050919050565b600060408201905081810360008301526125a58185612238565b90506125b46020830184612096565b9392505050565b7f426f756e747920616c726561647920636f6d706c657465640000000000000000600082015250565b60006125f16018836121f4565b91506125fc826125bb565b602082019050919050565b60006020820190508181036000830152612620816125e4565b9050919050565b7f426f756e747920646561646c696e652068617320706173736564000000000000600082015250565b600061265d601a836121f4565b915061266882612627565b602082019050919050565b6000602082019050818103600083015261268c81612650565b9050919050565b600060208201905081810360008301526126ad8184612238565b905092915050565b7f4e6f207375626d697373696f6e20746f20617070726f76650000000000000000600082015250565b60006126eb6018836121f4565b91506126f6826126b5565b602082019050919050565b6000602082019050818103600083015261271a816126de565b9050919050565b7f416c726561647920766f74656400000000000000000000000000000000000000600082015250565b6000612757600d836121f4565b915061276282612721565b602082019050919050565b600060208201905081810360008301526127868161274a565b9050919050565b7f43616e6e6f7420617070726f7665206f776e207375626d697373696f6e000000600082015250565b60006127c3601d836121f4565b91506127ce8261278d565b602082019050919050565b600060208201905081810360008301526127f2816127b6565b9050919050565b7f4d696e696d756d20617070726f76616c73206d7573742062652067726561746560008201527f72207468616e2030000000000000000000000000000000000000000000000000602082015250565b60006128556028836121f4565b9150612860826127f9565b604082019050919050565b6000602082019050818103600083015261288481612848565b9050919050565b7f4e487b7100000000000000000000000000000000000000000000000000000000600052602260045260246000fd5b600060028204905060018216806128d257607f821691505b602082108114156128e6576128e561288b565b5b50919050565b7f4f6e6c792063726561746f722063616e2063616e63656c000000000000000000600082015250565b60006129226017836121f4565b915061292d826128ec565b602082019050919050565b6000602082019050818103600083015261295181612915565b9050919050565b7f43616e6e6f742063616e63656c206166746572207375626d697373696f6e0000600082015250565b600061298e601e836121f4565b915061299982612958565b602082019050919050565b600060208201905081810360008301526129bd81612981565b9050919050565b7f4f776e61626c653a206e6577206f776e657220697320746865207a65726f206160008201527f6464726573730000000000000000000000000000000000000000000000000000602082015250565b6000612a206026836121f4565b9150612a2b826129c4565b604082019050919050565b60006020820190508181036000830152612a4f81612a13565b9050919050565b6000606082019050612a6b60008301866121bf565b612a7860208301856121bf565b612a856040830184612096565b949350505050565b7f4f776e61626c653a2063616c6c6572206973206e6f7420746865206f776e6572600082015250565b6000612ac36020836121f4565b9150612ace82612a8d565b602082019050919050565b60006020820190508181036000830152612af281612ab6565b9050919050565b6000612b0482611f21565b9150612b0f83611f21565b9250827fffffffffffffffffffffffffffffffffffffffffffffffffffffffffffffffff03821115612b4457612b436124a7565b5b828201905092915050565b6000604082019050612b6460008301856121bf565b612b716020830184612096565b9392505050565b612b8181612100565b8114612b8c57600080fd5b50565b600081519050612b9e81612b78565b92915050565b600060208284031215612bba57612bb9611dd1565b5b6000612bc884828501612b8f565b91505092915050565b7f5361666545524332303a204552433230206f7065726174696f6e20646964206e60008201527f6f74207375636365656400000000000000000000000000000000000000000000602082015250565b6000612c2d602a836121f4565b9150612c3882612bd1565b604082019050919050565b60006020820190508181036000830152612c5c81612c20565b9050919050565b7f416464726573733a20696e73756666696369656e742062616c616e636520666f60008201527f722063616c6c0000000000000000000000000000000000000000000000000000602082015250565b6000612cbf6026836121f4565b9150612cca82612c63565b604082019050919050565b60006020820190508181036000830152612cee81612cb2565b9050919050565b600081519050919050565b600081905092915050565b6000612d1682612cf5565b612d208185612d00565b9350612d30818560208601612205565b80840191505092915050565b6000612d488284612d0b565b915081905092915050565b7f416464726573733a2063616c6c20746f206e6f6e2d636f6e7472616374000000600082015250565b6000612d89601d836121f4565b9150612d9482612d53565b602082019050919050565b60006020820190508181036000830152612db881612d7c565b905091905056fea2646970667358221220e9ac998d423ef1b1fa75b19ee5f407c6a1c164448a64dc4940f71e4ce9cf9f4864736f6c634300080a0033",
    "linkReferences": {},
    "deployedLinkReferences": {}
}