{
  "_format": "hh-sol-artifact-1",
  "contractName": "CommunityBountyBoard",
  "sourceName": "contracts/CommuntyBoard.sol",
  "abi": [
    {
      "inputs": [],
      "stateMutability": "nonpayable",
      "type": "constructor"
    },
    {
      "anonymous": false,
      "inputs": [
        {
          "indexed": true,
          "internalType": "uint256",
          "name": "bountyId",
          "type": "uint256"
        },
        {
          "indexed": true,
          "internalType": "address",
          "name": "approver",
          "type": "address"
        }
      ],
      "name": "BountyApproved",
      "type": "event"
    },
    {
      "anonymous": false,
      "inputs": [
        {
          "indexed": true,
          "internalType": "uint256",
          "name": "bountyId",
          "type": "uint256"
        },
        {
          "indexed": true,
          "internalType": "address",
          "name": "creator",
          "type": "address"
        }
      ],
      "name": "BountyCanceled",
      "type": "event"
    },
    {
      "anonymous": false,
      "inputs": [
        {
          "indexed": true,
          "internalType": "uint256",
          "name": "bountyId",
          "type": "uint256"
        },
        {
          "indexed": true,
          "internalType": "address",
          "name": "winner",
          "type": "address"
        },
        {
          "indexed": false,
          "internalType": "uint256",
          "name": "reward",
          "type": "uint256"
        }
      ],
      "name": "BountyCompleted",
      "type": "event"
    },
    {
      "anonymous": false,
      "inputs": [
        {
          "indexed": true,
          "internalType": "uint256",
          "name": "bountyId",
          "type": "uint256"
        },
        {
          "indexed": true,
          "internalType": "address",
          "name": "creator",
          "type": "address"
        },
        {
          "indexed": false,
          "internalType": "string",
          "name": "title",
          "type": "string"
        },
        {
          "indexed": false,
          "internalType": "uint256",
          "name": "reward",
          "type": "uint256"
        }
      ],
      "name": "BountyCreated",
      "type": "event"
    },
    {
      "anonymous": false,
      "inputs": [
        {
          "indexed": true,
          "internalType": "address",
          "name": "previousOwner",
          "type": "address"
        },
        {
          "indexed": true,
          "internalType": "address",
          "name": "newOwner",
          "type": "address"
        }
      ],
      "name": "OwnershipTransferred",
      "type": "event"
    },
    {
      "anonymous": false,
      "inputs": [
        {
          "indexed": true,
          "internalType": "uint256",
          "name": "bountyId",
          "type": "uint256"
        },
        {
          "indexed": true,
          "internalType": "address",
          "name": "submitter",
          "type": "address"
        },
        {
          "indexed": false,
          "internalType": "string",
          "name": "ipfsProofHash",
          "type": "string"
        }
      ],
      "name": "ProofSubmitted",
      "type": "event"
    },
    {
      "stateMutability": "payable",
      "type": "fallback"
    },
    {
      "inputs": [
        {
          "internalType": "uint256",
          "name": "_bountyId",
          "type": "uint256"
        },
        {
          "internalType": "uint256",
          "name": "_submissionId",
          "type": "uint256"
        }
      ],
      "name": "approveSubmission",
      "outputs": [],
      "stateMutability": "nonpayable",
      "type": "function"
    },
    {
      "inputs": [
        {
          "internalType": "uint256",
          "name": "",
          "type": "uint256"
        }
      ],
      "name": "bounties",
      "outputs": [
        {
          "internalType": "uint256",
          "name": "id",
          "type": "uint256"
        },
        {
          "internalType": "address",
          "name": "creator",
          "type": "address"
        },
        {
          "internalType": "string",
          "name": "title",
          "type": "string"
        },
        {
          "internalType": "string",
          "name": "description",
          "type": "string"
        },
        {
          "internalType": "string",
          "name": "proofRequirements",
          "type": "string"
        },
        {
          "internalType": "uint256",
          "name": "reward",
          "type": "uint256"
        },
        {
          "internalType": "address",
          "name": "rewardToken",
          "type": "address"
        },
        {
          "internalType": "uint256",
          "name": "deadline",
          "type": "uint256"
        },
        {
          "internalType": "bool",
          "name": "completed",
          "type": "bool"
        },
        {
          "internalType": "address",
          "name": "winner",
          "type": "address"
        },
        {
          "internalType": "uint256",
          "name": "submissionCount",
          "type": "uint256"
        }
      ],
      "stateMutability": "view",
      "type": "function"
    },
    {
      "inputs": [],
      "name": "bountyCount",
      "outputs": [
        {
          "internalType": "uint256",
          "name": "",
          "type": "uint256"
        }
      ],
      "stateMutability": "view",
      "type": "function"
    },
    {
      "inputs": [
        {
          "internalType": "string",
          "name": "_title",
          "type": "string"
        },
        {
          "internalType": "string",
          "name": "_description",
          "type": "string"
        },
        {
          "internalType": "string",
          "name": "_proofRequirements",
          "type": "string"
        },
        {
          "internalType": "uint256",
          "name": "_reward",
          "type": "uint256"
        },
        {
          "internalType": "address",
          "name": "_rewardToken",
          "type": "address"
        },
        {
          "internalType": "uint256",
          "name": "_deadline",
          "type": "uint256"
        }
      ],
      "name": "createBounty",
      "outputs": [
        {
          "internalType": "uint256",
          "name": "",
          "type": "uint256"
        }
      ],
      "stateMutability": "payable",
      "type": "function"
    },
    {
      "inputs": [
        {
          "internalType": "uint256",
          "name": "_bountyId",
          "type": "uint256"
        }
      ],
      "name": "getBountyDetails",
      "outputs": [
        {
          "internalType": "address",
          "name": "creator",
          "type": "address"
        },
        {
          "internalType": "string",
          "name": "title",
          "type": "string"
        },
        {
          "internalType": "string",
          "name": "description",
          "type": "string"
        },
        {
          "internalType": "string",
          "name": "proofRequirements",
          "type": "string"
        },
        {
          "internalType": "uint256",
          "name": "reward",
          "type": "uint256"
        },
        {
          "internalType": "address",
          "name": "rewardToken",
          "type": "address"
        },
        {
          "internalType": "uint256",
          "name": "deadline",
          "type": "uint256"
        },
        {
          "internalType": "bool",
          "name": "completed",
          "type": "bool"
        },
        {
          "internalType": "address",
          "name": "winner",
          "type": "address"
        },
        {
          "internalType": "uint256",
          "name": "submissionCount",
          "type": "uint256"
        }
      ],
      "stateMutability": "view",
      "type": "function"
    },
    {
      "inputs": [
        {
          "internalType": "uint256",
          "name": "_bountyId",
          "type": "uint256"
        },
        {
          "internalType": "uint256",
          "name": "_submissionId",
          "type": "uint256"
        }
      ],
      "name": "getSubmission",
      "outputs": [
        {
          "internalType": "address",
          "name": "submitter",
          "type": "address"
        },
        {
          "internalType": "string",
          "name": "ipfsProofHash",
          "type": "string"
        },
        {
          "internalType": "uint256",
          "name": "timestamp",
          "type": "uint256"
        },
        {
          "internalType": "bool",
          "name": "approved",
          "type": "bool"
        },
        {
          "internalType": "uint256",
          "name": "approvalCount",
          "type": "uint256"
        }
      ],
      "stateMutability": "view",
      "type": "function"
    },
    {
      "inputs": [
        {
          "internalType": "uint256",
          "name": "_bountyId",
          "type": "uint256"
        }
      ],
      "name": "getSubmissionCount",
      "outputs": [
        {
          "internalType": "uint256",
          "name": "",
          "type": "uint256"
        }
      ],
      "stateMutability": "view",
      "type": "function"
    },
    {
      "inputs": [
        {
          "internalType": "address",
          "name": "_user",
          "type": "address"
        }
      ],
      "name": "getUserBounties",
      "outputs": [
        {
          "internalType": "uint256[]",
          "name": "",
          "type": "uint256[]"
        }
      ],
      "stateMutability": "view",
      "type": "function"
    },
    {
      "inputs": [
        {
          "internalType": "address",
          "name": "_user",
          "type": "address"
        }
      ],
      "name": "getUserSubmissions",
      "outputs": [
        {
          "internalType": "uint256[]",
          "name": "",
          "type": "uint256[]"
        }
      ],
      "stateMutability": "view",
      "type": "function"
    },
    {
      "inputs": [
        {
          "internalType": "uint256",
          "name": "_bountyId",
          "type": "uint256"
        },
        {
          "internalType": "uint256",
          "name": "_submissionId",
          "type": "uint256"
        },
        {
          "internalType": "address",
          "name": "_user",
          "type": "address"
        }
      ],
      "name": "hasVotedOnSubmission",
      "outputs": [
        {
          "internalType": "bool",
          "name": "",
          "type": "bool"
        }
      ],
      "stateMutability": "view",
      "type": "function"
    },
    {
      "inputs": [],
      "name": "minimumApprovals",
      "outputs": [
        {
          "internalType": "uint256",
          "name": "",
          "type": "uint256"
        }
      ],
      "stateMutability": "view",
      "type": "function"
    },
    {
      "inputs": [],
      "name": "owner",
      "outputs": [
        {
          "internalType": "address",
          "name": "",
          "type": "address"
        }
      ],
      "stateMutability": "view",
      "type": "function"
    },
    {
      "inputs": [],
      "name": "renounceOwnership",
      "outputs": [],
      "stateMutability": "nonpayable",
      "type": "function"
    },
    {
      "inputs": [
        {
          "internalType": "uint256",
          "name": "_bountyId",
          "type": "uint256"
        },
        {
          "internalType": "string",
          "name": "_ipfsProofHash",
          "type": "string"
        }
      ],
      "name": "submitProof",
      "outputs": [],
      "stateMutability": "nonpayable",
      "type": "function"
    },
    {
      "inputs": [
        {
          "internalType": "address",
          "name": "newOwner",
          "type": "address"
        }
      ],
      "name": "transferOwnership",
      "outputs": [],
      "stateMutability": "nonpayable",
      "type": "function"
    },
    {
      "inputs": [
        {
          "internalType": "address",
          "name": "",
          "type": "address"
        }
      ],
      "name": "userReputation",
      "outputs": [
        {
          "internalType": "uint256",
          "name": "",
          "type": "uint256"
        }
      ],
      "stateMutability": "view",
      "type": "function"
    },
    {
      "stateMutability": "payable",
      "type": "receive"
    }
  ],
  "bytecode": "0x608060405260036002553480156200001657600080fd5b50620000376200002b6200003d60201b60201c565b6200004560201b60201c565b62000109565b600033905090565b60008060009054906101000a900473ffffffffffffffffffffffffffffffffffffffff169050816000806101000a81548173ffffffffffffffffffffffffffffffffffffffff021916908373ffffffffffffffffffffffffffffffffffffffff1602179055508173ffffffffffffffffffffffffffffffffffffffff168173ffffffffffffffffffffffffffffffffffffffff167f8be0079c531659141344cd1fd0a4f28419497f9722a3daafe3b4186f6b6457e060405160405180910390a35050565b612e3c80620001196000396000f3fe6080604052600436106100f75760003560e01c8063a7b8614d1161008a578063e503bb0511610059578063e503bb0514610359578063f0f284fc14610396578063f2fde38b146103dc578063fc40d6e714610405576100fe565b8063a7b8614d14610269578063b7ed7071146102a6578063cfe09650146102e7578063dc2f874414610312576100fe565b80636591a185116100c65780636591a185146101ad578063715018a6146101ea5780637be24cb8146102015780638da5cb5b1461023e576100fe565b806301767dd3146101005780632af00510146101305780632d6c3008146101595780633e362c9614610182576100fe565b366100fe57005b005b61011a60048036038101906101159190612005565b610442565b60405161012791906120f5565b60405180910390f35b34801561013c57600080fd5b5061015760048036038101906101529190612110565b61071e565b005b34801561016557600080fd5b50610180600480360381019061017b919061216c565b61092f565b005b34801561018e57600080fd5b50610197610bef565b6040516101a491906120f5565b60405180910390f35b3480156101b957600080fd5b506101d460048036038101906101cf91906121ac565b610bf5565b6040516101e19190612297565b60405180910390f35b3480156101f657600080fd5b506101ff610c8c565b005b34801561020d57600080fd5b50610228600480360381019061022391906122b9565b610ca0565b60405161023591906120f5565b60405180910390f35b34801561024a57600080fd5b50610253610cc0565b60405161026091906122f5565b60405180910390f35b34801561027557600080fd5b50610290600480360381019061028b91906121ac565b610ce9565b60405161029d9190612297565b60405180910390f35b3480156102b257600080fd5b506102cd60048036038101906102c8919061216c565b610d80565b6040516102de9594939291906123b3565b60405180910390f35b3480156102f357600080fd5b506102fc610ef2565b60405161030991906120f5565b60405180910390f35b34801561031e57600080fd5b50610339600480360381019061033491906122b9565b610ef8565b6040516103509b9a9998979695949392919061240d565b60405180910390f35b34801561036557600080fd5b50610380600480360381019061037b91906121ac565b611157565b60405161038d91906120f5565b60405180910390f35b3480156103a257600080fd5b506103bd60048036038101906103b891906122b9565b61116f565b6040516103d39a999897969594939291906124cd565b60405180910390f35b3480156103e857600080fd5b5061040360048036038101906103fe91906121ac565b6113f8565b005b34801561041157600080fd5b5061042c6004803603810190610427919061257e565b61147c565b60405161043991906125d1565b60405180910390f35b6000428211610486576040517f08c379a000000000000000000000000000000000000000000000000000000000815260040161047d90612638565b60405180910390fd5b60006001600081548092919061049b90612687565b9190505590506000600360008381526020019081526020016000209050818160000181905550338160010160006101000a81548173ffffffffffffffffffffffffffffffffffffffff021916908373ffffffffffffffffffffffffffffffffffffffff1602179055508881600201908051906020019061051c929190611d74565b5087816003019080519060200190610535929190611d74565b508681600401908051906020019061054e929190611d74565b50858160050181905550848160060160006101000a81548173ffffffffffffffffffffffffffffffffffffffff021916908373ffffffffffffffffffffffffffffffffffffffff16021790555083816007018190555060008160090181905550600560003373ffffffffffffffffffffffffffffffffffffffff1673ffffffffffffffffffffffffffffffffffffffff168152602001908152602001600020829080600181540180825580915050600190039060005260206000200160009091909190915055600073ffffffffffffffffffffffffffffffffffffffff168573ffffffffffffffffffffffffffffffffffffffff1614156106905785341461068b576040517f08c379a00000000000000000000000000000000000000000000000000000000081526004016106829061271c565b60405180910390fd5b6106be565b6106bd3330888873ffffffffffffffffffffffffffffffffffffffff166114fc909392919063ffffffff16565b5b3373ffffffffffffffffffffffffffffffffffffffff16827f64b439309954f148e681118e8f6556d39f6204a461e3307190a6928618ff26558b8960405161070792919061273c565b60405180910390a381925050509695505050505050565b60006003600084815260200190815260200160002090508060080160009054906101000a900460ff1615610787576040517f08c379a000000000000000000000000000000000000000000000000000000000815260040161077e906127b8565b60405180910390fd5b80600701544211156107ce576040517f08c379a00000000000000000000000000000000000000000000000000000000081526004016107c590612824565b60405180910390fd5b60008160090160008154809291906107e590612687565b919050559050600082600a0160008381526020019081526020016000209050338160000160006101000a81548173ffffffffffffffffffffffffffffffffffffffff021916908373ffffffffffffffffffffffffffffffffffffffff1602179055508381600101908051906020019061085f929190611d74565b5042816002018190555060008160040181905550600660003373ffffffffffffffffffffffffffffffffffffffff1673ffffffffffffffffffffffffffffffffffffffff1681526020019081526020016000208590806001815401808255809150506001900390600052602060002001600090919091909150553373ffffffffffffffffffffffffffffffffffffffff16857fb2217a1ebc8d6435d328a4607aa9709269fe4cb393535a1675721d8431a54018866040516109209190612844565b60405180910390a35050505050565b60006003600084815260200190815260200160002090508060090154821061098c576040517f08c379a0000000000000000000000000000000000000000000000000000000008152600401610983906128b2565b60405180910390fd5b600081600a01600084815260200190815260200160002090508160080160009054906101000a900460ff16156109f7576040517f08c379a00000000000000000000000000000000000000000000000000000000081526004016109ee906127b8565b60405180910390fd5b8060050160003373ffffffffffffffffffffffffffffffffffffffff1673ffffffffffffffffffffffffffffffffffffffff16815260200190815260200160002060009054906101000a900460ff1615610a86576040517f08c379a0000000000000000000000000000000000000000000000000000000008152600401610a7d9061291e565b60405180910390fd5b8060000160009054906101000a900473ffffffffffffffffffffffffffffffffffffffff1673ffffffffffffffffffffffffffffffffffffffff163373ffffffffffffffffffffffffffffffffffffffff161415610b19576040517f08c379a0000000000000000000000000000000000000000000000000000000008152600401610b109061298a565b60405180910390fd5b60018160050160003373ffffffffffffffffffffffffffffffffffffffff1673ffffffffffffffffffffffffffffffffffffffff16815260200190815260200160002060006101000a81548160ff021916908315150217905550806004016000815480929190610b8890612687565b91905055503373ffffffffffffffffffffffffffffffffffffffff16847f8fb3e89720f5f3732f08285d4110a82e719304cafb9028c0dbdc805f92a4b04160405160405180910390a3600254816004015410610be957610be88484611585565b5b50505050565b60015481565b6060600560008373ffffffffffffffffffffffffffffffffffffffff1673ffffffffffffffffffffffffffffffffffffffff168152602001908152602001600020805480602002602001604051908101604052809291908181526020018280548015610c8057602002820191906000526020600020905b815481526020019060010190808311610c6c575b50505050509050919050565b610c9461190e565b610c9e600061198c565b565b600060036000838152602001908152602001600020600901549050919050565b60008060009054906101000a900473ffffffffffffffffffffffffffffffffffffffff16905090565b6060600660008373ffffffffffffffffffffffffffffffffffffffff1673ffffffffffffffffffffffffffffffffffffffff168152602001908152602001600020805480602002602001604051908101604052809291908181526020018280548015610d7457602002820191906000526020600020905b815481526020019060010190808311610d60575b50505050509050919050565b60006060600080600060036000888152602001908152602001600020600901548610610de1576040517f08c379a0000000000000000000000000000000000000000000000000000000008152600401610dd8906128b2565b60405180910390fd5b600060036000898152602001908152602001600020600a01600088815260200190815260200160002090508060000160009054906101000a900473ffffffffffffffffffffffffffffffffffffffff168160010182600201548360030160009054906101000a900460ff168460040154838054610e5d906129d9565b80601f0160208091040260200160405190810160405280929190818152602001828054610e89906129d9565b8015610ed65780601f10610eab57610100808354040283529160200191610ed6565b820191906000526020600020905b815481529060010190602001808311610eb957829003601f168201915b5050505050935095509550955095509550509295509295909350565b60025481565b60036020528060005260406000206000915090508060000154908060010160009054906101000a900473ffffffffffffffffffffffffffffffffffffffff1690806002018054610f47906129d9565b80601f0160208091040260200160405190810160405280929190818152602001828054610f73906129d9565b8015610fc05780601f10610f9557610100808354040283529160200191610fc0565b820191906000526020600020905b815481529060010190602001808311610fa357829003601f168201915b505050505090806003018054610fd5906129d9565b80601f0160208091040260200160405190810160405280929190818152602001828054611001906129d9565b801561104e5780601f106110235761010080835404028352916020019161104e565b820191906000526020600020905b81548152906001019060200180831161103157829003601f168201915b505050505090806004018054611063906129d9565b80601f016020809104026020016040519081016040528092919081815260200182805461108f906129d9565b80156110dc5780601f106110b1576101008083540402835291602001916110dc565b820191906000526020600020905b8154815290600101906020018083116110bf57829003601f168201915b5050505050908060050154908060060160009054906101000a900473ffffffffffffffffffffffffffffffffffffffff16908060070154908060080160009054906101000a900460ff16908060080160019054906101000a900473ffffffffffffffffffffffffffffffffffffffff1690806009015490508b565b60046020528060005260406000206000915090505481565b600060608060606000806000806000806000600360008d815260200190815260200160002090508060010160009054906101000a900473ffffffffffffffffffffffffffffffffffffffff1681600201826003018360040184600501548560060160009054906101000a900473ffffffffffffffffffffffffffffffffffffffff1686600701548760080160009054906101000a900460ff168860080160019054906101000a900473ffffffffffffffffffffffffffffffffffffffff16896009015488805461123e906129d9565b80601f016020809104026020016040519081016040528092919081815260200182805461126a906129d9565b80156112b75780601f1061128c576101008083540402835291602001916112b7565b820191906000526020600020905b81548152906001019060200180831161129a57829003601f168201915b505050505098508780546112ca906129d9565b80601f01602080910402602001604051908101604052809291908181526020018280546112f6906129d9565b80156113435780601f1061131857610100808354040283529160200191611343565b820191906000526020600020905b81548152906001019060200180831161132657829003601f168201915b50505050509750868054611356906129d9565b80601f0160208091040260200160405190810160405280929190818152602001828054611382906129d9565b80156113cf5780601f106113a4576101008083540402835291602001916113cf565b820191906000526020600020905b8154815290600101906020018083116113b257829003601f168201915b505050505096509a509a509a509a509a509a509a509a509a509a50509193959799509193959799565b61140061190e565b600073ffffffffffffffffffffffffffffffffffffffff168173ffffffffffffffffffffffffffffffffffffffff161415611470576040517f08c379a000000000000000000000000000000000000000000000000000000000815260040161146790612a7d565b60405180910390fd5b6114798161198c565b50565b600060036000858152602001908152602001600020600a01600084815260200190815260200160002060050160008373ffffffffffffffffffffffffffffffffffffffff1673ffffffffffffffffffffffffffffffffffffffff16815260200190815260200160002060009054906101000a900460ff1690509392505050565b61157f846323b872dd60e01b85858560405160240161151d93929190612a9d565b604051602081830303815290604052907bffffffffffffffffffffffffffffffffffffffffffffffffffffffff19166020820180517bffffffffffffffffffffffffffffffffffffffffffffffffffffffff8381831617835250505050611a50565b50505050565b6000600360008481526020019081526020016000209050600081600a016000848152602001908152602001600020905060018260080160006101000a81548160ff0219169083151502179055508060000160009054906101000a900473ffffffffffffffffffffffffffffffffffffffff168260080160016101000a81548173ffffffffffffffffffffffffffffffffffffffff021916908373ffffffffffffffffffffffffffffffffffffffff16021790555060018160030160006101000a81548160ff021916908315150217905550600a600460008360000160009054906101000a900473ffffffffffffffffffffffffffffffffffffffff1673ffffffffffffffffffffffffffffffffffffffff1673ffffffffffffffffffffffffffffffffffffffff16815260200190815260200160002060008282546116ca9190612ad4565b925050819055506005600460008460010160009054906101000a900473ffffffffffffffffffffffffffffffffffffffff1673ffffffffffffffffffffffffffffffffffffffff1673ffffffffffffffffffffffffffffffffffffffff16815260200190815260200160002060008282546117459190612ad4565b92505081905550600073ffffffffffffffffffffffffffffffffffffffff168260060160009054906101000a900473ffffffffffffffffffffffffffffffffffffffff1673ffffffffffffffffffffffffffffffffffffffff161415611819578060000160009054906101000a900473ffffffffffffffffffffffffffffffffffffffff1673ffffffffffffffffffffffffffffffffffffffff166108fc83600501549081150290604051600060405180830381858888f19350505050158015611813573d6000803e3d6000fd5b50611891565b6118908160000160009054906101000a900473ffffffffffffffffffffffffffffffffffffffff1683600501548460060160009054906101000a900473ffffffffffffffffffffffffffffffffffffffff1673ffffffffffffffffffffffffffffffffffffffff16611b189092919063ffffffff16565b5b8060000160009054906101000a900473ffffffffffffffffffffffffffffffffffffffff1673ffffffffffffffffffffffffffffffffffffffff16847f285d0f935b4d6592b80efc46cc3d9eb3e93e27fe245f0a6c2b5b9a9d04800ee7846005015460405161190091906120f5565b60405180910390a350505050565b611916611b9e565b73ffffffffffffffffffffffffffffffffffffffff16611934610cc0565b73ffffffffffffffffffffffffffffffffffffffff161461198a576040517f08c379a000000000000000000000000000000000000000000000000000000000815260040161198190612b76565b60405180910390fd5b565b60008060009054906101000a900473ffffffffffffffffffffffffffffffffffffffff169050816000806101000a81548173ffffffffffffffffffffffffffffffffffffffff021916908373ffffffffffffffffffffffffffffffffffffffff1602179055508173ffffffffffffffffffffffffffffffffffffffff168173ffffffffffffffffffffffffffffffffffffffff167f8be0079c531659141344cd1fd0a4f28419497f9722a3daafe3b4186f6b6457e060405160405180910390a35050565b6000611ab2826040518060400160405280602081526020017f5361666545524332303a206c6f772d6c6576656c2063616c6c206661696c65648152508573ffffffffffffffffffffffffffffffffffffffff16611ba69092919063ffffffff16565b9050600081511480611ad4575080806020019051810190611ad39190612bc2565b5b611b13576040517f08c379a0000000000000000000000000000000000000000000000000000000008152600401611b0a90612c61565b60405180910390fd5b505050565b611b998363a9059cbb60e01b8484604051602401611b37929190612c81565b604051602081830303815290604052907bffffffffffffffffffffffffffffffffffffffffffffffffffffffff19166020820180517bffffffffffffffffffffffffffffffffffffffffffffffffffffffff8381831617835250505050611a50565b505050565b600033905090565b6060611bb58484600085611bbe565b90509392505050565b606082471015611c03576040517f08c379a0000000000000000000000000000000000000000000000000000000008152600401611bfa90612d1c565b60405180910390fd5b6000808673ffffffffffffffffffffffffffffffffffffffff168587604051611c2c9190612d83565b60006040518083038185875af1925050503d8060008114611c69576040519150601f19603f3d011682016040523d82523d6000602084013e611c6e565b606091505b5091509150611c7f87838387611c8b565b92505050949350505050565b60608315611cee57600083511415611ce657611ca685611d01565b611ce5576040517f08c379a0000000000000000000000000000000000000000000000000000000008152600401611cdc90612de6565b60405180910390fd5b5b829050611cf9565b611cf88383611d24565b5b949350505050565b6000808273ffffffffffffffffffffffffffffffffffffffff163b119050919050565b600082511115611d375781518083602001fd5b806040517f08c379a0000000000000000000000000000000000000000000000000000000008152600401611d6b9190612844565b60405180910390fd5b828054611d80906129d9565b90600052602060002090601f016020900481019282611da25760008555611de9565b82601f10611dbb57805160ff1916838001178555611de9565b82800160010185558215611de9579182015b82811115611de8578251825591602001919060010190611dcd565b5b509050611df69190611dfa565b5090565b5b80821115611e13576000816000905550600101611dfb565b5090565b6000604051905090565b600080fd5b600080fd5b600080fd5b600080fd5b6000601f19601f8301169050919050565b7f4e487b7100000000000000000000000000000000000000000000000000000000600052604160045260246000fd5b611e7e82611e35565b810181811067ffffffffffffffff82111715611e9d57611e9c611e46565b5b80604052505050565b6000611eb0611e17565b9050611ebc8282611e75565b919050565b600067ffffffffffffffff821115611edc57611edb611e46565b5b611ee582611e35565b9050602081019050919050565b82818337600083830152505050565b6000611f14611f0f84611ec1565b611ea6565b905082815260208101848484011115611f3057611f2f611e30565b5b611f3b848285611ef2565b509392505050565b600082601f830112611f5857611f57611e2b565b5b8135611f68848260208601611f01565b91505092915050565b6000819050919050565b611f8481611f71565b8114611f8f57600080fd5b50565b600081359050611fa181611f7b565b92915050565b600073ffffffffffffffffffffffffffffffffffffffff82169050919050565b6000611fd282611fa7565b9050919050565b611fe281611fc7565b8114611fed57600080fd5b50565b600081359050611fff81611fd9565b92915050565b60008060008060008060c0878903121561202257612021611e21565b5b600087013567ffffffffffffffff8111156120405761203f611e26565b5b61204c89828a01611f43565b965050602087013567ffffffffffffffff81111561206d5761206c611e26565b5b61207989828a01611f43565b955050604087013567ffffffffffffffff81111561209a57612099611e26565b5b6120a689828a01611f43565b94505060606120b789828a01611f92565b93505060806120c889828a01611ff0565b92505060a06120d989828a01611f92565b9150509295509295509295565b6120ef81611f71565b82525050565b600060208201905061210a60008301846120e6565b92915050565b6000806040838503121561212757612126611e21565b5b600061213585828601611f92565b925050602083013567ffffffffffffffff81111561215657612155611e26565b5b61216285828601611f43565b9150509250929050565b6000806040838503121561218357612182611e21565b5b600061219185828601611f92565b92505060206121a285828601611f92565b9150509250929050565b6000602082840312156121c2576121c1611e21565b5b60006121d084828501611ff0565b91505092915050565b600081519050919050565b600082825260208201905092915050565b6000819050602082019050919050565b61220e81611f71565b82525050565b60006122208383612205565b60208301905092915050565b6000602082019050919050565b6000612244826121d9565b61224e81856121e4565b9350612259836121f5565b8060005b8381101561228a5781516122718882612214565b975061227c8361222c565b92505060018101905061225d565b5085935050505092915050565b600060208201905081810360008301526122b18184612239565b905092915050565b6000602082840312156122cf576122ce611e21565b5b60006122dd84828501611f92565b91505092915050565b6122ef81611fc7565b82525050565b600060208201905061230a60008301846122e6565b92915050565b600081519050919050565b600082825260208201905092915050565b60005b8381101561234a57808201518184015260208101905061232f565b83811115612359576000848401525b50505050565b600061236a82612310565b612374818561231b565b935061238481856020860161232c565b61238d81611e35565b840191505092915050565b60008115159050919050565b6123ad81612398565b82525050565b600060a0820190506123c860008301886122e6565b81810360208301526123da818761235f565b90506123e960408301866120e6565b6123f660608301856123a4565b61240360808301846120e6565b9695505050505050565b600061016082019050612423600083018e6120e6565b612430602083018d6122e6565b8181036040830152612442818c61235f565b90508181036060830152612456818b61235f565b9050818103608083015261246a818a61235f565b905061247960a08301896120e6565b61248660c08301886122e6565b61249360e08301876120e6565b6124a16101008301866123a4565b6124af6101208301856122e6565b6124bd6101408301846120e6565b9c9b505050505050505050505050565b6000610140820190506124e3600083018d6122e6565b81810360208301526124f5818c61235f565b90508181036040830152612509818b61235f565b9050818103606083015261251d818a61235f565b905061252c60808301896120e6565b61253960a08301886122e6565b61254660c08301876120e6565b61255360e08301866123a4565b6125616101008301856122e6565b61256f6101208301846120e6565b9b9a5050505050505050505050565b60008060006060848603121561259757612596611e21565b5b60006125a586828701611f92565b93505060206125b686828701611f92565b92505060406125c786828701611ff0565b9150509250925092565b60006020820190506125e660008301846123a4565b92915050565b7f446561646c696e65206d75737420626520696e20746865206675747572650000600082015250565b6000612622601e8361231b565b915061262d826125ec565b602082019050919050565b6000602082019050818103600083015261265181612615565b9050919050565b7f4e487b7100000000000000000000000000000000000000000000000000000000600052601160045260246000fd5b600061269282611f71565b91507fffffffffffffffffffffffffffffffffffffffffffffffffffffffffffffffff8214156126c5576126c4612658565b5b600182019050919050565b7f4d7573742073656e642065786163742072657761726420616d6f756e74000000600082015250565b6000612706601d8361231b565b9150612711826126d0565b602082019050919050565b60006020820190508181036000830152612735816126f9565b9050919050565b60006040820190508181036000830152612756818561235f565b905061276560208301846120e6565b9392505050565b7f426f756e747920616c726561647920636f6d706c657465640000000000000000600082015250565b60006127a260188361231b565b91506127ad8261276c565b602082019050919050565b600060208201905081810360008301526127d181612795565b9050919050565b7f426f756e747920646561646c696e652068617320706173736564000000000000600082015250565b600061280e601a8361231b565b9150612819826127d8565b602082019050919050565b6000602082019050818103600083015261283d81612801565b9050919050565b6000602082019050818103600083015261285e818461235f565b905092915050565b7f496e76616c6964207375626d697373696f6e2049440000000000000000000000600082015250565b600061289c60158361231b565b91506128a782612866565b602082019050919050565b600060208201905081810360008301526128cb8161288f565b9050919050565b7f416c726561647920766f74656400000000000000000000000000000000000000600082015250565b6000612908600d8361231b565b9150612913826128d2565b602082019050919050565b60006020820190508181036000830152612937816128fb565b9050919050565b7f43616e6e6f7420617070726f7665206f776e207375626d697373696f6e000000600082015250565b6000612974601d8361231b565b915061297f8261293e565b602082019050919050565b600060208201905081810360008301526129a381612967565b9050919050565b7f4e487b7100000000000000000000000000000000000000000000000000000000600052602260045260246000fd5b600060028204905060018216806129f157607f821691505b60208210811415612a0557612a046129aa565b5b50919050565b7f4f776e61626c653a206e6577206f776e657220697320746865207a65726f206160008201527f6464726573730000000000000000000000000000000000000000000000000000602082015250565b6000612a6760268361231b565b9150612a7282612a0b565b604082019050919050565b60006020820190508181036000830152612a9681612a5a565b9050919050565b6000606082019050612ab260008301866122e6565b612abf60208301856122e6565b612acc60408301846120e6565b949350505050565b6000612adf82611f71565b9150612aea83611f71565b9250827fffffffffffffffffffffffffffffffffffffffffffffffffffffffffffffffff03821115612b1f57612b1e612658565b5b828201905092915050565b7f4f776e61626c653a2063616c6c6572206973206e6f7420746865206f776e6572600082015250565b6000612b6060208361231b565b9150612b6b82612b2a565b602082019050919050565b60006020820190508181036000830152612b8f81612b53565b9050919050565b612b9f81612398565b8114612baa57600080fd5b50565b600081519050612bbc81612b96565b92915050565b600060208284031215612bd857612bd7611e21565b5b6000612be684828501612bad565b91505092915050565b7f5361666545524332303a204552433230206f7065726174696f6e20646964206e60008201527f6f74207375636365656400000000000000000000000000000000000000000000602082015250565b6000612c4b602a8361231b565b9150612c5682612bef565b604082019050919050565b60006020820190508181036000830152612c7a81612c3e565b9050919050565b6000604082019050612c9660008301856122e6565b612ca360208301846120e6565b9392505050565b7f416464726573733a20696e73756666696369656e742062616c616e636520666f60008201527f722063616c6c0000000000000000000000000000000000000000000000000000602082015250565b6000612d0660268361231b565b9150612d1182612caa565b604082019050919050565b60006020820190508181036000830152612d3581612cf9565b9050919050565b600081519050919050565b600081905092915050565b6000612d5d82612d3c565b612d678185612d47565b9350612d7781856020860161232c565b80840191505092915050565b6000612d8f8284612d52565b915081905092915050565b7f416464726573733a2063616c6c20746f206e6f6e2d636f6e7472616374000000600082015250565b6000612dd0601d8361231b565b9150612ddb82612d9a565b602082019050919050565b60006020820190508181036000830152612dff81612dc3565b905091905056fea2646970667358221220424ca1aad3c9579b316ec443aad4598db5dd9be6e290bb2396fffebe1196384064736f6c634300080a0033",
  "linkReferences": {},
  "deployedLinkReferences": {}
}